:020000040000FA
:100000000C9459050C9481050C9481050C94810580
:100010000C9481050C9481050C9481050C94810548
:100020000C9481050C9481050C9481050C94810538
:100030000C9481050C9481050C9481050C94810528
:100040000C94B1160C9481050C9421170C94FB169A
:100050000C9481050C9481050C9481050C94810508
:100060000C9453170C9481054765742052656164A4
:1000700079210000000000003E5B4F5B3E3E6B4F6D
:100080006B3E1C3E7C3E1C183C7E3C181C577D572A
:100090001C1C5E7F5E1C00183C1800FFE7C3E7FFD6
:1000A0000018241800FFE7DBE7FF30483A060E2669
:1000B00029792926407F050507407F05253F5A3CC1
:1000C000E73C5A7F3E1C1C08081C1C3E7F14227F04
:1000D00022145F5F005F5F06097F017F00668995DC
:1000E0006A606060606094A2FFA29408047E0408C5
:1000F00010207E201008082A1C08081C2A08081E48
:10010000101010100C1E0C1E0C30383E3830060E2D
:100110003E0E06000000000000005F000000070027
:100120000700147F147F14242A7F2A1223130864E3
:100130006236495620500008070300001C22410087
:100140000041221C002A1C7F1C2A08083E080800C7
:100150008070300008080808080000606000201067
:100160000804023E5149453E00427F400072494921
:1001700049462141494D331814127F102745454502
:10018000393C4A4949314121110907364949493623
:10019000464949291E0000140000004034000000B8
:1001A00008142241141414141400412214080201EA
:1001B0005909063E415D594E7C1211127C7F494916
:1001C00049363E414141227F4141413E7F494949B3
:1001D000417F090909013E414151737F0808087FA9
:1001E00000417F41002040413F017F081422417FB0
:1001F000404040407F021C027F7F0408107F3E4148
:1002000041413E7F090909063E4151215E7F09199E
:100210002946264949493203017F01033F404040B6
:100220003F1F2040201F3F4038403F6314081463A5
:1002300003047804036159494D43007F4141410261
:1002400004081020004141417F04020102044040A3
:10025000404040000307080020545478407F284461
:1002600044383844444428384444287F385454544B
:100270001800087E090218A4A49C787F080404785A
:1002800000447D40002040403D007F102844000095
:10029000417F40007C047804787C0804047838446A
:1002A000444438FC1824241818242418FC7C08041E
:1002B0000408485454542404043F44243C4040203F
:1002C0007C1C2040201C3C4030403C4428102844EA
:1002D0004C9090907C4464544C440008364100009B
:1002E00000770000004136080002010204023C26AB
:1002F00023263C1EA1A161123A4040207A38545472
:1003000055592155557941225454784221555478F4
:100310004020545579400C1E52721239555555598A
:10032000395454545939555454580000457C4100AF
:1003300002457D420001457C407D1211127DF0286E
:100340002528F07C545545002054547C547C0A09DF
:100350007F4932494949323A4444443A324A48484A
:10036000303A4141217A3A42402078009DA0A07D58
:100370003D4242423D3D4040403D3C24FF24244814
:100380007E4943662B2FFC2F2BFF0929F620C088BE
:100390007E090320545479410000447D413048488F
:1003A0004A32384040227A007A0A0A727D0D1931A9
:1003B0007D2629292F28262929292630484D402005
:1003C000380808080808080808382F10C8ACBA2FE1
:1003D000102834FA00007B000008142A142222148A
:1003E0002A14085500550055AA55AA55AAFF55FFCD
:1003F00055FF000000FF00101010FF00141414FF40
:10040000001010FF00FF1010F010F0141414FC0086
:100410001414F700FF0000FF00FF1414F404FC1490
:100420001417101F10101F101F1414141F00101089
:1004300010F0000000001F101010101F10101010FE
:10044000F010000000FF101010101010101010FF1E
:1004500010000000FF140000FF00FF00001F101735
:100460000000FC04F414141710171414F404F4001E
:1004700000FF00F714141414141414F700F71414E4
:1004800014171410101F101F141414F4141010F06B
:1004900010F000001F101F0000001F14000000FCDF
:1004A000140000F010F01010FF10FF141414FF14CB
:1004B0001010101F00000000F010FFFFFFFFFFF002
:1004C000F0F0F0F0FFFFFF0000000000FFFF0F0F53
:1004D0000F0F0F3844443844FC4A4A4A347E020223
:1004E0000606027E027E0263554941633844443C5D
:1004F00004407E201E2006027E020299A5E7A599EF
:100500001C2A492A1C4C7201724C304A4D4D303025
:1005100048784830BC625A463D3E494949007E0110
:1005200001017E2A2A2A2A2A44445F444440514A2F
:10053000444040444A51400000FF0103E080FF0076
:100540000008086B6B083612362436060F090F06B2
:10055000000018180000001010003040FF010100DA
:100560001F01011E00191D1712003C3C3C3C0000FD
:10057000000000000103070F1F3F7F0080C0E0F074
:10058000F8FCFEDB40A4A62EAF2000A1C8D300409B
:100590008DAED580A80000600000000000000000C3
:1005A000000000000000E00000000000000000006B
:1005B0000000000001E0000000000000000000005A
:1005C00000000001F000000000000000000000003A
:1005D000000003F000000000000000000000000028
:1005E0000007F00000000000000000000000000014
:1005F00007F8000000000000000000000000000FED
:10060000F800000003C0007E000001E0007F0FF84A
:1006100000000003C000FE000001E000FFEFF80052
:10062000000003C000FE000001E000FFFFF8000032
:100630000003C000F00000000F007FFE7FC000003C
:1006400003C000F00000000F003FFE7FF83FF1FB09
:10065000CFFCFEF3BC3DEFE01FFE7FFF7FFBFFDF23
:10066000FEFEFFBC3DEFE01FC6FFFF7FFBFFDFFE8E
:10067000FEFFBC3DEFE00FE3C7FE787BC3DE1EF05C
:10068000FFBC3DEF0007FF87FC787BC3DE1EF0F860
:100690003C3DEF0001FFFFF0007BC3C01EF0F03CCB
:1006A0003DEF0001F37FE03FFBC3CFFEF0F03C3DA8
:1006B000EF0003E33F807FFBC3DFFEF0F03C3DEF44
:1006C0000007E73C00787BC3DE1EF0F03C3DEF0006
:1006D00007FFBE00787BC3DE1EF0F03C3DEF000755
:1006E000FFFE00787BC3DE1EF0F03C3DEF000FFF05
:1006F000FE007FFBFFDFFEF0F03FFDEFE00FFFFFAE
:10070000007FFBFFDFFEF0F03FFDEFE00FF9FF00A1
:100710003E79F9CF9EF0F01F3DE7E01FF1FF0000AA
:10072000000000000000000000001F80FF007FFFAD
:10073000FFFFFFFFFFFFFFFFE01C007F007FFFFFC9
:10074000FFFEB46D888D18E000001F007FFFFFFFE3
:10075000FE95AD7DB577E000000F007FFFFFFFFE47
:10076000A5AD9D8D19E0000006007FFFFFFFFEB5DF
:10077000ADEDB57EE000000000000180000000004B
:1007800000000000000380000000000000000000E6
:1007900007C000000000000000000007C0000000CB
:1007A0000000000000000FC000000000000000007A
:1007B000001FE00000000000000000001FE000003B
:1007C000000000000000003FE0000000000000000A
:1007D00000003FF00000000000000000007FF0007B
:1007E0000000000000001FF87FF000000000000083
:1007F000003FFE7FF0000000000000003FFF7FF0A0
:10080000000000000000001FFFFBE00000000000EF
:1008100000000FFFF9FFC00000000000000FFFF90B
:10082000FFF800000000000007FFF1FFFF000000DC
:1008300000000003FC73FFFF80000000000001FEC9
:100840003FFFFF80000000000000FF1E0FFF0000C0
:1008500000000000007FFE1FFC0000000000000000
:100860003FFFFFF8000000000000000FDFFFE00086
:100870000000000000001F19FFC000000000000081
:10088000003F3CFF00000000000000007E7CF800FC
:10089000000000000000007FFE7C0000000000005F
:1008A0000000FFFFFC0000000000000000FFFFFE52
:1008B0000000000000000000FFFFFE00000000003C
:1008C000000001FFEFFE0000000000000001FFCF6C
:1008D000FE0000000000000003FF07FE0000000013
:1008E00000000003FC07FE0000000000000003F011
:1008F00003FE00000000000000018000FE00000078
:10090000000000000000007E000000000000000069
:1009100000003E000000000000000000000C00008D
:1009200000000000078000FC000003C0000000077A
:100930008001FC000003C0000000078001FC0000F3
:1009400003C0000000078001E00000001E0000005E
:10095000078001E00000001E007FE3F79FF9FDE73C
:10096000787BDFC0FFF7FFBFFDFDFF787BDFC0FFB7
:10097000F7FFBFFDFDFF787BDFC0F0F787BC3DE1EF
:10098000FF787BDE00F0F787BC3DE1F0787BDE008E
:1009900000F787803DE1E0787BDE007FF7879FFDF1
:1009A000E1E0787BDE00FFF787BFFDE1E0787BDEEA
:1009B00000F0F787BC3DE1E0787BDE00F0F787BC14
:1009C0003DE1E0787BDE00F0F787BC3DE1E0787B3D
:1009D000DE00FFF7FFBFFDE1E07FFBDFC0FFF7FFB9
:1009E000BFFDE1E07FFBDFC07CF3F39F3DE1E03E34
:1009F0007BCFC00000000000000000000000FFFFEF
:100A0000FFFFFFFFFFFFFFFFC0FFFFFFFFFD68DBF2
:100A1000111A31C0FFFFFFFFFD2B5AFB6AEFC0FF29
:100A2000FFFFFFFD4B5B3B1A33C0FFFFFFFFFD6B7A
:100A30005BDB6AFDC053534431333036206261C5FD
:100A40009F6C6174C4B16C616D6164C4B121004775
:100A5000414D45204F56455200000000080002015C
:100A60000000030407000000000000000000000078
:100A700000250028002B0000000000240027002A89
:100A80000004040404040404040202020202020337
:100A90000303030303010204081020408001020441
:100AA0000810200102040810202200FF2100721803
:100AB000791D11241FBECFEFD8E0DEBFCDBF11E0FE
:100AC000A0E0B1E0E2EDF1E402C005900D92A8369D
:100AD000B107D9F723E0A8E6B1E001C01D92A03329
:100AE000B207E1F715E0C8E5D5E004C02197FE01A3
:100AF0000E94A51FC735D107C9F70E94F5180C94AD
:100B0000DC200C94000090E0FC01EB56F54F2491A2
:100B10008F57954FFC018491882399F090E0880FBE
:100B2000991FFC01E958F54FA591B491FC01E359D7
:100B3000F54F859194918FB7F894EC91E22BEC935B
:100B40008FBF0895089590E0FC01E75AF54F249176
:100B5000FC01EB56F54F3491FC01EF57F54FE49152
:100B6000EE23C9F0222339F0233001F1A8F421301B
:100B700019F1223029F1F0E0EE0FFF1FE359F54F94
:100B8000A591B4918FB7F894EC91611126C030957E
:100B90003E233C938FBF08952730A9F02830C9F039
:100BA000243049F7809180008F7D03C080918000C0
:100BB0008F7780938000DFCF84B58F7784BDDBCFC4
:100BC00084B58F7DFBCF8091B0008F778093B0008C
:100BD000D2CF8091B0008F7DF9CF3E2BDACF3FB7D7
:100BE000F89480913B0290913C02A0913D02B0911B
:100BF0003E0226B5A89B05C02F3F19F00196A11D06
:100C0000B11D3FBFBA2FA92F982F8827BC01CD0156
:100C1000620F711D811D911D42E0660F771F881FB5
:100C2000991F4A95D1F708958F929F92AF92BF92E4
:100C3000CF92DF92EF92FF924B015C010E94EF0591
:100C40006B017C010E94EF056C197D098E099F09DB
:100C5000683E734081059105A8F321E0821A91084E
:100C6000A108B10888EEC80E83E0D81EE11CF11C73
:100C700081149104A104B10429F7FF90EF90DF9053
:100C8000CF90BF90AF909F908F9008950895089552
:100C9000EF92FF920F931F93CF93DF938C017B0111
:100CA000D0E0C0E0F701EC0FFD1F6491D801ED9199
:100CB000FC91662349F00190F081E02DC80109956F
:100CC000892B11F02196EECFD801ED91FC91028095
:100CD000F381E02D42E050E064E671E0C80109953F
:100CE0008C0F9D1FDF91CF911F910F91FF90EF907F
:100CF0000895AF92BF92CF92DF92EF92FF920F933F
:100D00001F93CF93DF936C017B018B01040F151FA1
:100D1000EB015E01AE18BF08C017D10759F0699109
:100D2000D601ED91FC910190F081E02DC60109956D
:100D3000892B79F7C501DF91CF911F910F91FF901A
:100D4000EF90DF90CF90BF90AF900895FC01538D4E
:100D5000448D252F30E0842F90E0821B930B541795
:100D600010F0CF96089501970895FC01918D828D22
:100D7000981761F0A28DAE0FBF2FB11D5D968C91BB
:100D8000928D9F5F9F73928F90E008958FEF9FEFFA
:100D90000895FC01918D828D981731F0828DE80FB6
:100DA000F11D858D90E008958FEF9FEF0895FC0170
:100DB000918D228D892F90E0805C9F4F821B91093D
:100DC0008F739927089583E492E00E94D70621E06B
:100DD000892B09F420E0822F089580E090E0892B90
:100DE00029F00E94E30681110C9400000895FC0193
:100DF000A48DA80FB92FB11DA35ABF4F2C91848D7C
:100E000090E001968F739927848FA689B7892C93D8
:100E1000A089B1898C91837080648C93938D848D2B
:100E2000981306C00288F389E02D80818F7D80832E
:100E30000895EF92FF920F931F93CF93DF93EC01EE
:100E400081E0888F9B8D8C8D98131AC0E889F98971
:100E5000808185FF15C09FB7F894EE89FF89608374
:100E6000E889F98980818370806480839FBF81E0F5
:100E700090E0DF91CF911F910F91FF90EF90089537
:100E8000F62E0B8D10E00F5F1F4F0F731127E02E12
:100E90008C8D8E110CC00FB607FCFACFE889F9894A
:100EA000808185FFF5CFCE010E94F706F1CFEB8D53
:100EB000EC0FFD2FF11DE35AFF4FF0829FB7F8941E
:100EC0000B8FEA89FB8980818062CFCFCF93DF933C
:100ED000EC01888D8823B9F0AA89BB89E889F98952
:100EE0008C9185FD03C0808186FD0DC00FB607FC87
:100EF000F7CF8C9185FFF2CF808185FFEDCFCE01BA
:100F00000E94F706E9CFDF91CF910895EF92FF920B
:100F10000F931F93CF93DF93EC01EC80FD806E1550
:100F20007F050CF070C057FF04C0240F351F50E040
:100F300040E08E819F81FA01E20FF31F8E179F0719
:100F40001CF49C01241B350B121613060CF05BC01D
:100F5000922F842F8695869586958E9DD0018F9DA4
:100F6000B00D11246A0F7B1FAF8DB8A1A60FB71F5C
:100F7000477049F188E0841B482F682F70E0FB011F
:100F8000E558FA4FE491281708F063C0621B710915
:100F90002FEF30E002C0359527956A95E2F7E223FE
:100FA0000130110539F0B0F10230110561F58C9175
:100FB000E82702C08C91E82BEC93941720F12C8148
:100FC0003D81A20FB31FE92FE41BE83078F0023017
:100FD000110521F58E2F9C9190959C932C813D813C
:100FE000A20FB31F88508830B0F7E770EE2359F096
:100FF000F0E0ED58FA4FE49101301105F9F010F1ED
:101000000230110519F1DF91CF911F910F91FF90DF
:10101000EF900895E0958C91E823CECF81E0011503
:10102000110509F480E081959E2F8C932C813D81E0
:10103000A20FB31F98509830C0F7D7CF8C91E82BF0
:10104000EC93E1CFE0958C91E823FACF8C91E827DF
:10105000F7CF0130110509F4ADCFE0F202301105F0
:1010600009F4A5CFAE0DBF1DAECF0F931F93CF9345
:10107000DF9377FF04C0260F371F70E060E0DC01CC
:101080001496CD91DC91FB01E20FF31FCE17DF0721
:101090001CF49E01261B370B121613064CF5FA01A1
:1010A00057FD3796A3E0F595E795AA95E1F7EC9FF4
:1010B000D001ED9FB00DFC9FB00D11246A0F7B1F76
:1010C000DC015F96ED91FC91E60FF71F4770552705
:1010D00081E090E001C0880F4A95EAF7482F01307F
:1010E000110559F0A8F02E0F3F1F02301105E1F055
:1010F000DF91CF911F910F9108952E0F3F1FE2179F
:10110000F307B1F38191DF011197842B8C93F7CF13
:1011100080952E0F3F1FE217F30751F39191DF01E6
:10112000119798239C93F7CFE217F30709F3819166
:10113000DF01119784278C93F7CF0F931F93FA0148
:10114000DC0156964C9156974230E9F04330A1F1BC
:10115000413061F514964D915C91DA01AE1BBF0BE5
:10116000FD01E21BF30B77FD0BC0DC0116964D91E0
:101170005C916417750724F4AB01BF010E94350828
:101180001F910F91089514964D915C91DA01A61B61
:10119000B70BBD0161507109DC0116964D915C9150
:1011A000DA01AE1BBF0BFD01E21BF30B77FDE8CFAD
:1011B000AF010E948607E4CF16964D915C91DA014B
:1011C000A61BB70BBD0161507109CDCF0F931F93C3
:1011D000FA01DC0156964C9156974230A9F0433003
:1011E00091F1413019F514964D915C91DA01AE1BE5
:1011F000BF0BFD013197F7FD04C0AB01BF010E9499
:1012000086071F910F91089514964D915C91DA0114
:10121000A61BB70BBD01DC0116964D915C91DA015E
:10122000AE1BBF0BFD013197621B730BF7FDE9CFBE
:10123000DC0116964D915C91E417F50714F7AF01A8
:101240000E943508DECF16964D915C91DA01A61BFF
:10125000B70BBD01621B730BCECFFC0177FD64C0E1
:1012600080859185681779070CF05EC057FD5CC0DA
:1012700082859385481759070CF056C086898230BD
:10128000B1F0833029F1813041F484819581841B50
:10129000950BAB01BC01615071092130310509F199
:1012A00008F443C02230310509F463C008958481F5
:1012B0009581DC01A61BB70BBD01615071098681C8
:1012C0009781DC01A41BB50BAD0141505109E5CF5D
:1012D00086819781861B970BBA01AC014150510959
:1012E000DCCFCA0157FD0796A3E095958795AA958F
:1012F000E1F7A481B5818A9F90018B9F300D9A9F61
:10130000300D1124620F731F078CF0A1E02DE60F42
:10131000F71F4770552721E030E001C0220F4A95A2
:10132000EAF78081822B80830895CA0157FD0796D2
:1013300033E0959587953A95E1F7A481B5818A9F29
:1013400090018B9F300D9A9F300D1124620F731FF7
:10135000078CF0A1E02DE60FF71F4770552781E0BD
:1013600090E001C0880F4A95EAF780959081892323
:10137000DACFCA0157FD079623E0959587952A9500
:10138000E1F7A481B5818A9F90018B9F300D9A9FD0
:10139000300D1124620F731F078CF0A1E02DE60FB2
:1013A000F71F4770552721E030E001C0220F4A9512
:1013B000EAF780818227B7CF08958EBD00000DB473
:1013C00007FEFDCF8EB508958CBD9DBD089508958F
:1013D000FC016370668B8481958126813781613041
:1013E00039F0633029F09187808733872287089509
:1013F000318720879387828708952F923F924F925B
:101400005F926F927F928F929F92AF92BF92CF9294
:10141000DF92EF92FF920F931F93CF93DF93CDB79D
:10142000DEB76A970FB6F894DEBF0FBECDBF9A8FB6
:10143000898F7A8369834A01D22E18870F833701F7
:10144000BC2CDC0159962D913C915A972115310500
:1014500009F015C118968D919C9119976817790715
:101460000CF0D7C11A968D919C91481759070CF032
:10147000D0C14C2C512CB6E0CB9E600D711D1124B7
:101480007C876B87161617060CF0C3C1EA2DF0E0B7
:10149000FA87E98793E0EE0FFF1F9A95E1F7F88B43
:1014A000EF87CF01840F951F181619060CF0B1C1F4
:1014B000A98DBA8D58968C91811104C0BFEABD15D3
:1014C00008F4D394A98DBA8DED91FC911197028403
:1014D000F385E02DCD010995B5E0DB9EC001112417
:1014E000E981FA81FC83EB83312C212C9C012D585E
:1014F0003F4F388F2F8B4A2D50E05E8B4D8BEF89FD
:10150000F88DE20DF31D44919E828D82D12CC12C69
:1015100069817A81620D731D7A8B698B842F90E0CB
:101520009C8B8B8BE98DFA8DA081B18140FF82C0AD
:10153000F1E0BF126FC0AF126DC01C96ED91FC912F
:101540002F813885A4014C0D5D1D69897A89898DAB
:101550009A8D0995EB89FC89F595E7954E2F5FEFFC
:10156000C51AD50A6D817E818D899E89680F791F84
:101570007E836D8398E0C916D10481F6AFEF2A1AF5
:101580003A0AEB81FC81E40DF51DFC83EB83F5E069
:101590002F16310409F0B3CF2F8138852615370572
:1015A000B9F0A98DBA8DED91FC91B1E0BB1257C095
:1015B000AB1255C069817A816B5F7F4F0088F189DA
:1015C000E02D830128E030E0A401898D9A8D0995F2
:1015D000A98DBA8DED91FC9111970688F789E02DC0
:1015E000CD016A960FB6F894DEBF0FBECDBFDF9176
:1015F000CF911F910F91FF90EF90DF90CF90BF9010
:10160000AF909F908F907F906F905F904F903F90A2
:101610002F9009941E96ED91FC91EF80F884098536
:101620001A8592014D815E816B817C81898D9A8DB5
:10163000099590CF2F8138852615370509F48ACF73
:1016400031E0B31207C0A31205C01C96ED91FC91C6
:10165000930178CF1E96ED91FC917301E0CF6B85DD
:101660007C85641975090684F785E02D73010F8563
:1016700018899201A401898D9A8D0995A9CFF90144
:1016800034969491329745915491D91AB7E0DB9EE4
:10169000400D511D1124F901259134913C8B2B8B68
:1016A000FA0125903490FA01329674903196349173
:1016B000398B329664903196449041E04C1518F085
:1016C0004A1508F07FC0662D062C000C770B7C8332
:1016D0006B83842D042C000C990B9E838D83A98D24
:1016E000BA8DED91FC9111970284F385E02DCD0127
:1016F0000995512CD12CC12CEA2DF0E0FA87E9870D
:101700002B2D30E03C872B87A401440D511D47FC55
:101710005A95588F4F8B69817A81660D711D67FCD0
:101720007A957E876D877989C71608F051CF2C2D61
:1017300030E04D815E81420F531FA985BA854A9FD3
:10174000C0014B9F900D5A9F900D1124FC01E80D94
:10175000F91DF88BEF87852D612C4F89588D420F2D
:10176000531F5E8B4D8B671408F050C04424439484
:10177000480E877041F4C1010196EB89FC89E20DA6
:10178000F31DD4901C01D7FE19C0A98DBA8DED911F
:10179000FC91662D70E0B1E0BB1219C0AB1217C00E
:1017A0002D853E85620F731F0484F585E02D2F8102
:1017B00038854D895E89898D9A8D0995DD0C6394F4
:1017C000842DD1CF1E821D821C821B8288CF4B812B
:1017D0005C81640F751FAB85BC856A9FC0016B9FE0
:1017E000900D7A9F900D112469817A81680F791F7D
:1017F0000684F785E02DEF80F88409851A859D0120
:101800004F855889898D9A8D0995D8CF570CC394E7
:101810008ACF6A960FB6F894DEBF0FBECDBFDF91B8
:10182000CF911F910F91FF90EF90DF90CF90BF90DD
:10183000AF909F908F907F906F905F904F903F9070
:101840002F9008958F929F92AF92CF92EF92FF9236
:101850000F931F93CF93DF93EC01262F898D9A8DE1
:10186000009709F051C06A30D1F41D861C868D891D
:1018700048E0849F900111248E859F85820F931FDD
:101880009F878E8781E090E0DF91CF911F910F912C
:10189000FF90EF90CF90AF909F908F9008956D3014
:1018A00089F3CC88AD888F898823C1F08C859D858C
:1018B00036E0C39E800D911D112448855985481737
:1018C000590764F44E855F851D861C8638E0A39E0B
:1018D000C0011124840F951F9F878E87EA88FB889B
:1018E000088919894E855F856C857D85CE010E94AA
:1018F000FD092C898C859D8546E0249F800D911DD6
:1019000011249D878C87BECF6A3069F41D861C86A2
:10191000FC013896E4912D898E859F85E29F800D8C
:10192000911D1124ADCF6D3009F4ACCFFC0134967C
:101930003491631708F4A6CF3296E491E61708F4C1
:10194000A1CFFC01329685909490462F431B342FF3
:1019500047E0349F800C911C1124F401329634919D
:101960003196E4913323A9F1EE2399F1CC88F40167
:101970003596E491AD884F89442301F10E2E000C79
:10198000FF0BE30FF11DCE9EA001CF9E500D112441
:101990006C857D85460F571F6885798564177507A7
:1019A0006CF44E855F851D861C86FC013896E4919B
:1019B000AE9E400D511D11245F874E87EA88FB883B
:1019C000088919894E855F856C857D85CE010E94C9
:1019D000FD09F4013496E4912C898C859D85E29F64
:1019E000800D911D11248DCF6F927F928F929F92C7
:1019F000AF92BF92CF92DF92EF92FF920F931F931D
:101A0000CF93DF93EC016B015A0139014801E88162
:101A1000F9810284F385E02D0995E881F981028836
:101A2000F389E02D87019301A501B601CE01099547
:101A3000A501480D591D41505109E881F9810288DD
:101A4000F389E02D9301B601CE010995E881F98172
:101A50000088F189E02D9401A501B601CE01099518
:101A6000C60CD71CB60161507109E881F981008864
:101A7000F189E02D9401A501CE010995E881F98154
:101A80000688F789E02DCE01DF91CF911F910F914C
:101A9000FF90EF90DF90CF90BF90AF909F908F908E
:101AA0007F906F9009946F927F928F929F92AF92E6
:101AB000BF92CF92DF92EF92FF920F931F93CF933B
:101AC000DF935C01EB016A01490138018701DC0108
:101AD000ED91FC916217730719F5641675062CF0E9
:101AE000962D872D3A01C92ED82E96012619370931
:101AF0002F5F3F4F048CF58DE02DA301BE01C50182
:101B00000995DF91CF911F910F91FF90EF90DF909A
:101B1000CF90BF90AF909F908F907F906F900895DF
:101B20004615570591F42617370724F0892D4B01E8
:101B3000C22FD82F9E01281939092F5F3F4F068CDD
:101B4000F78DE02DA601B401DACF0284F385E02DF4
:101B50000995D501ED91FC910488F589E02D83016B
:101B60009401A601BE01C5010995D501ED91FC9135
:101B70000688F789E02DC501DF91CF911F910F9164
:101B8000FF90EF90DF90CF90BF90AF909F908F909D
:101B90007F906F900994EF92FF920F931F93DC0157
:101BA0001A960D911C911B9718962D913C9119979F
:101BB000ED91FC9100A0F1A1E02D7B0150E040E00F
:101BC00070E060E009951F910F91FF90EF900895EC
:101BD0004F925F926F927F928F929F92AF92BF923D
:101BE000CF92DF92EF92FF920F931F93CF93DF93E9
:101BF0006C012B015A0139014801DC01ED91FC9186
:101C00000284F385E02D0995E201640C751CD60170
:101C1000ED91FC91C615D7055CF40088F189E02DA3
:101C200087019401A501BE01C60109952196EFCF58
:101C30000688F789E02DC601DF91CF911F910F91A2
:101C4000FF90EF90DF90CF90BF90AF909F908F90DC
:101C50007F906F905F904F9009948F929F92AF9278
:101C6000BF92CF92DF92EF92FF920F931F93CF9389
:101C7000DF93EC015B014A016901E881F98102848B
:101C8000F385E02D099595012C0D3D1D215031095D
:101C9000E881F9810488F589E02D78018401A401A7
:101CA000B501CE010995E881F9810688F789E02D13
:101CB000CE01DF91CF911F910F91FF90EF90DF90B8
:101CC000CF90BF90AF909F908F9009948F929F92EA
:101CD000AF92BF92CF92DF92EF92FF920F931F933A
:101CE000CF93DF93EC015B014A0169017801E88140
:101CF000F9810284F385E02D0995C80CD91C860171
:101D000001501109E881F9810488F589E02D9501D8
:101D1000A401B501CE010995E881F9810688F7890A
:101D2000E02DCE01DF91CF911F910F91FF90EF90A9
:101D3000DF90CF90BF90AF909F908F900994EF92DB
:101D4000FF920F931F93DC01ED91FC9100A0F1A194
:101D5000E02D09951F910F91FF90EF9008950F933B
:101D60001F93DC01ED91FC91068CF78DE02D099518
:101D70001F910F9108950F931F93DC01ED91FC913A
:101D8000048CF58DE02D09951F910F910895DC01CC
:101D9000ED91FC910084F185E02D09943F924F92E2
:101DA0005F926F927F928F929F92AF92BF92CF92EB
:101DB000DF92EF92FF920F931F93CF93DF935C011B
:101DC0007B014A016901390187E0680E711C93E0CB
:101DD000759467949A95E1F72B01400E511E10E01F
:101DE00000E0312CD0E0C0E0CE0187709927330CA1
:101DF000892B59F4FE0183E0F595E7958A95E1F783
:101E0000E00FF11FE80DF91D349037FE0AC021E004
:101E100030E0A701B5016C0F7D1F8CEE92E00E94AF
:101E2000C70E2196CC16DD06F9F68FEFE81AF80AF0
:101E3000060D171DE414F504A9F6DF91CF911F914B
:101E40000F91FF90EF90DF90CF90BF90AF909F9059
:101E50008F907F906F905F904F903F9008952F925A
:101E60003F924F925F926F927F928F929F92AF922A
:101E7000BF92CF92DF92EF92FF920F931F93CF9377
:101E8000DF9300D000D000D0CDB7DEB73C016A01AF
:101E90003E832D83FC82EB825801A41AB50AB7FE5B
:101EA00003C0B194A194B1088D809E80861A970AD0
:101EB00097FE03C09194819491088A149B045CF06E
:101EC000902F812F0D811E819D838E839C2D8D2DC2
:101ED0006B01692F782F0C151D055CF09D818E819B
:101EE0007E836D83692F782F902F812F8601C92ED5
:101EF000D82E1601201A310A2B012D813E81421A5B
:101F0000530A57FE03C0519441945108710137FEA2
:101F100003C03FEFE31AF30AF594E7948D819E81A5
:101F2000861797075CF5A1E0B0E0BA83A983C016D5
:101F3000D1064CF1D301ED91FC910484F585E02D9F
:101F40002B813C81A8016D817E818A149B041CF049
:101F50004D815E81B801C3010995E418F508F7FECB
:101F60000AC02D813E8189819A81280F391F3E83C5
:101F70002D83E20CF31C0F5F1F4FD9CF2FEF3FEFE4
:101F80003A832983D4CF26960FB6F894DEBF0FBECE
:101F9000CDBFDF91CF911F910F91FF90EF90DF9018
:101FA000CF90BF90AF909F908F907F906F905F90F9
:101FB0004F903F902F90089508952091CE01260FC5
:101FC0003327331F21323105ECF42091F201FC015B
:101FD00090E080E0243069F082E00895A091CE0185
:101FE0002191AC0142555E4FA40FB52FB11D2C932A
:101FF0000196861798F38091CE01680F6093CE0109
:1020000080E0089581E008951092F20181E08093CC
:10201000F4011092F30161E082E10E94A30561E006
:1020200083E10E94A305E9EBF0E080818E7F80834D
:1020300080818D7F808388E48093B80085E48093DD
:10204000BC000895CF93DF9391E09093AD01882376
:10205000B9F0C091B800D091BA008091BC008A7BE1
:102060008093BC0060E082E10E94A30560E083E110
:102070000E94A3050E940410D093BA00C093B80038
:10208000DF91CF910895E0911E0280911D02E81723
:1020900030F4F0E0E857FE4F808190E008958FEF34
:1020A0009FEF089590911E0280911D022FEF3FEF48
:1020B000981748F4E92FF0E0E857FE4F208130E010
:1020C0009F5F90931E02C901089580911D02909117
:1020D0001E02891B990B0895CF92DF92EF92FF9217
:1020E0000F931F93CF93DF937C01CB018A01209143
:1020F0004202222389F0EB016B01C40ED51ECC15E0
:10210000DD0569F06991D701ED91FC910190F081B5
:10211000E02DC7010995F3CF642F0E94DD0FC801A0
:10212000DF91CF911F910F91FF90EF90DF90CF90B3
:102130000895CF93DF931F92CDB7DEB769832091C7
:1021400042022223F9F020913F02203258F021E090
:1021500030E0FC013383228390E080E00F90DF9138
:10216000CF91089580914002E82FF0E0E859FE4FAA
:10217000998190838F5F8093400280933F0281E03A
:1021800090E0ECCF61E0CE0101960E94DD0FF7CF29
:10219000CF92DF92EF92FF920F931F93CF93DF9333
:1021A000D0913F0281E0D13208F09CC0C091410241
:1021B0000E94EF056B017C018091F20181116CC0DE
:1021C00082E08093F20181E08093F4018FEF8093AD
:1021D000F10110921602D0931502A8E6B1E0E5EFE6
:1021E000F1E080E0D8138DC01092170280911702A1
:1021F000CC0FC82BC09317028091F301813009F0F6
:1022000084C01092F3010E94EF056B017C01809164
:1022100017028093BB008091A9019091AA01A0911F
:10222000AB01B091AC01892B8A2B8B2BA1F00E94C2
:10223000EF050091A9011091AA012091AB01309105
:10224000AC016C197D098E099F090617170728072D
:10225000390708F442C08091BC0083FDD8CF85ECDB
:102260008093BC000E94EF056B017C018091F2011C
:10227000823009F44CC08091F1018F3F09F469C0AC
:102280008091F101803209F466C08091F1018033C0
:1022900009F463C084E026C08091A9019091AA014D
:1022A000A091AB01B091AC01892B8A2B8B2B09F447
:1022B00083CF0E94EF050091A9011091AA012091FE
:1022C000AB013091AC016C197D098E099F0906178D
:1022D00017072807390708F06FCF8091A8010E94DF
:1022E000221085E01092400210923F0210924202AA
:1022F000DF91CF911F910F91FF90EF90DF90CF90E2
:1023000008959D9191938F5F6DCF85EEA9CF8091B8
:10231000A9019091AA01A091AB01B091AC01892BC8
:102320008A2B8B2B09F4A2CF0E94EF050091A90103
:102330001091AA012091AB013091AC016C197D097B
:102340008E099F09061717072807390708F08ECF4F
:10235000C4CF80E0C7CF82E0C5CF83E0C3CFEF9288
:10236000FF920F931F93CF93DF937C01C62F809131
:10237000090390910A03009709F459C020910D03B5
:1023800031E03093420220934102109240021092B9
:102390003F02DC01ED91FC910190F081E02D60E0C5
:1023A00009958701EE24E394F12CD1E0C15080918E
:1023B000090390910A03CF3F91F1B0E2EB16F104CB
:1023C000D8F00E94C8108091090390910A032091CF
:1023D0000D03D093420220934102109240021092CA
:1023E0003F02DC01ED91FC910190F081E02D60E075
:1023F0000995EE24E394F12C8091090390910A034E
:10240000F8016491DC01ED91FC910190F081E02DE7
:102410000995BFEFEB1AFB0A0F5F1F4FC7CFDF9184
:10242000CF911F910F91FF90EF900C94C810E09105
:102430001903F0911A03908180911F0380958923DD
:1024400080838701C15008F438C0F801849120913D
:10245000070330910803232B29F00E94DD090F5F49
:102460001F4FF0CF28E030E040E8E0911503F091F5
:10247000160390911D03582F5423D9F05081952BAA
:102480009083E0911703F0911803908150911E03FF
:10249000952B9083E0911703F09118035081909150
:1024A0001E03909595239083469521503109E9F6B6
:1024B000D6CF508190959523E3CFDF91CF911F9197
:1024C0000F91FF90EF9008951F93CF93DF93EC014E
:1024D0008D8D9E8D009721F1162F29A131E030932B
:1024E0004202209341021092400210923F02DC010E
:1024F000ED91FC910190F081E02D60E009958D8DCA
:102500009E8DDC01ED91FC910190F081E02D612F19
:1025100009958D8D9E8DDF91CF911F910C94C810E0
:10252000ADA5BEA59C918BA9809589238C938B8D9D
:102530009C8D892B31F0862FDF91CF911F910C94C8
:10254000DD0928E030E080E8A9A5BAA599A9462FC1
:102550004823C1F04C91942B9C93ABA5BCA59C91B6
:102560004AA9942B9C93ABA5BCA54C919AA9909594
:1025700094239C9386952150310931F7DF91CF91B7
:102580001F9108954C9190959423E6CFDF92EF929E
:10259000FF920F931F93CF93DF9380910903909144
:1025A0000A03892B09F498C020912103309122035A
:1025B000409123035091240360E074E284EF90E0A3
:1025C0000E94A71D2051310941095109569547958F
:1025D000379527952093B80065E089EA9AE00E9434
:1025E000AF116091F00261508CEE92E00E94641293
:1025F0002091F2023091F302C901079697FD0796E8
:1026000033E0959587953A95E1F72091F002309166
:10261000F102829F8001839F100D929F100D112463
:10262000C0910B03D0910C038091090390910A0390
:102630000C0F1D1F009709F48FC020910D0331E08E
:1026400030934202209341021092400210923F02C6
:10265000DC01ED91FC910190F081E02D60E40995A1
:10266000EE24E394F12CDD24D3948091090390911E
:102670000A030C171D0709F446C0B0E2EB16F1047B
:10268000D8F00E94C8108091090390910A0320910C
:102690000D03D09242022093410210924002109208
:1026A0003F02DC01ED91FC910190F081E02D60E4AE
:1026B0000995EE24E394F12C8091090390910A038B
:1026C0006991DC01ED91FC910190F081E02D09957B
:1026D000BFEFEB1AFB0AC9CF809107039091080363
:1026E000892B31F080912A0390912B030E94E409F9
:1026F000E0911B03F0911C03908180912003809551
:102700008923808369CF0E94C8108091090390912A
:102710000A03892B09F461C0209125033091260317
:10272000409127035091280360E074E284EF90E029
:102730000E94A71D2051310941095109569547951D
:10274000379527952093B800DF91CF911F910F9176
:10275000FF90EF90DF900895E0911903F0911A0334
:10276000808190911F03892B80830C171D0769F2CC
:1027700089912091070330910803232B19F00E94BF
:10278000DD09F3CF28E030E040E8E0911503F09157
:10279000160390911D03582F5423D9F05081952B87
:1027A0009083E0911703F0911803908150911E03DC
:1027B000952B9083E0911703F0911803508190912D
:1027C0001E03909595239083469521503109E9F693
:1027D000CCCF508190959523E3CFE0911B03F091EE
:1027E0001C03808190912003892B8083ADCF1F93A0
:1027F000CF93DF93EC01162F8D8D9E8D892BB1F138
:102800002DA93EA94FA958AD60E074E284EF90E095
:102810000E94A71D2051310941095109569547953C
:10282000379527952093B80066EA111167EACE0123
:102830000E9464128D8D9E8D892B41F129AD3AAD98
:102840004BAD5CAD60E074E284EF90E00E94A71DA8
:1028500020513109410951095695479537952795DA
:102860002093B800DF91CF911F9108958B8D9C8D9F
:10287000892B21F08EAD9FAD0E94E409EFA5F8A948
:1028800090818CA9809589238083CECFEFA5F8A96C
:1028900080819CA9892B8083E5CF90E080E008951A
:1028A000CF92DF92EF92FF920F931F93CF93DF931C
:1028B000E0900A01F0900B01C0910601D091070150
:1028C000670182E0C81AD10801E010E025E030E09D
:1028D000A601BE018CEE92E00E94BB0EBE016F5FAE
:1028E0007F4F25E030E0A6018CEE92E00E94BB0E07
:1028F000BE016150710925E030E0A6018CEE92E046
:102900000E94BB0E81E0E81AF108BE016E5F7F4FA6
:1029100023E030E0A7018CEE92E00E94BB0EBE01E6
:102920006250710923E030E0A7018CEE92E00E9432
:10293000BB0EDF91CF911F910F91FF90EF90DF9031
:10294000CF900895EF92FF920F931F936091000133
:1029500070910101EE24E394F12C04E010E02EE1EB
:1029600030E04CE350E08CEE92E00E94E80D1F91C5
:102970000F91FF90EF900895CF93DF93C0910C01DA
:10298000D0910D0161E01C161D060CF060E083E0A3
:102990000E94A30561E0C230D1050CF460E084E040
:1029A0000E94A30561E023970CF460E085E0DF91CD
:1029B000CF910C94A305CF92DF92EF92FF920F93E9
:1029C0001F93CF93DF93CDB7DEB762970FB6F8941E
:1029D000DEBF0FBECDBF8C01BC0161507109072E57
:1029E000000C880B990B0E947D1E2DEC3CEC4CE4F6
:1029F0005EE30E94091F20E030E040E85FE30E94B0
:102A0000D91D6B017C010E94451E709305016093E6
:102A10000401C701B60190580E94451E709303013E
:102A200060930201FE01319682E1DF011D928A95D9
:102A3000E9F781E089830330110509F4C1C00CF086
:102A400065C00130110509F487C00230110509F491
:102A50009DC08FE192E09E01295F3F4FBF01DB01E6
:102A60004D91BD01DC014D93CD0162177307B9F79C
:102A70008F818093250288858093260289858093A3
:102A800027028A85809328028B85809329028C8572
:102A900080932A02DE011D968BE292E0AF014E5E2A
:102AA0005F4F2D91FC012193CF014A175B07C9F7B6
:102AB00080E490E0909307018093060186E390E024
:102AC00090930B0180930A0181E090E090930501BF
:102AD000809304018FEF9FEF909303018093020195
:102AE00081E390E0909301018093000162960FB61C
:102AF000F894DEBF0FBECDBFDF91CF911F910F9134
:102B0000FF90EF90DF90CF900C94BC14043011052F
:102B100009F47AC00530110509F09BCF9F01BE0171
:102B20006D5E7F4F81E0982F917050E040E0D901B9
:102B3000A40FB51F192F11701C934F5F5F4F9F5F3C
:102B400091704630510599F78F5F81702A5F3F4F32
:102B50002617370741F77DCFDF019E012D5E3F4FDE
:102B600081E08C9311968C93119712968C93129707
:102B700013968C93139714968C93149715968C93A5
:102B8000159716962A173B0761F763CFDF019E0161
:102B90002D5E3F4F81E08C9311968C931197129686
:102BA0008C93129713961C92139714968C931497E8
:102BB00015968C93159716962A173B0761F749CF00
:102BC000AF0125E030E085E0C82ED12C7601E21A75
:102BD000F30A90E080E061E0E816F90621F028179A
:102BE000390709F060E08A01080F191FD8016C93BA
:102BF00001968630910579F74A5F5F4F2150310980
:102C00002230310519F725CFBF0130E020E090E0F8
:102C100080E089010D7F41E00115110531F0009739
:102C200021F08530910509F040E0DB01A80FB91FC4
:102C30004C9301968630910571F72F5F3F4F6A5F85
:102C40007F4F2330310519F704CF2091F2023091E4
:102C5000F302C901079697FD079623E0959587959E
:102C60002A95E1F72091F0023091F102829FA001B4
:102C7000839F500D929F500D112470E060E0809171
:102C80000B0390910C030C94D520CF93DF930E94FB
:102C90002516ECEEF2E081E0848B858BC1E0D0E07C
:102CA000D38BC28BD18BC08B158614861786168664
:102CB0001092350268E670E0CF010E9448060E943B
:102CC000C61260ED77E080E090E00E94140683E099
:102CD00090E090930D0180930C01D0930901C09373
:102CE000080181E090E0DF91CF910C94DB140E9409
:102CF000D02085ED8093BC008091A9019091AA011C
:102D0000A091AB01B091AC010796A11DB11D23E0CC
:102D1000B695A795979587952A95D1F72091BC00F0
:102D200024FD03C01092F20108954091A901509131
:102D3000AA016091AB017091AC01452B462B472B4A
:102D400069F30097A105B10541F02AE22A95F1F750
:102D500000C00197A109B109E1CF8091A8010C94AD
:102D600022101F920F920FB60F9211242F933F93B0
:102D70008F939F93AF93BF938091370290913802C6
:102D8000A0913902B0913A023091360223E0230F2C
:102D90002D3758F50196A11DB11D20933602809361
:102DA000370290933802A0933902B0933A0280918F
:102DB0003B0290913C02A0913D02B0913E020196EF
:102DC000A11DB11D80933B0290933C02A0933D0254
:102DD000B0933E02BF91AF919F918F913F912F9100
:102DE0000F900FBE0F901F90189526E8230F0296A4
:102DF000A11DB11DD2CF1F920F920FB60F921124B9
:102E00002F933F934F935F936F937F938F939F93F2
:102E1000AF93BF93EF93FF9383E492E00E94F70692
:102E2000FF91EF91BF91AF919F918F917F916F91A2
:102E30005F914F913F912F910F900FBE0F901F9078
:102E400018951F920F920FB60F9211242F938F9304
:102E50009F93EF93FF93E0915302F091540280818E
:102E6000E0915902F0915A0282FD1BC0908180913D
:102E70005C028F5F8F7320915D02821741F0E091B9
:102E80005C02F0E0ED5BFD4F958F80935C02FF915B
:102E9000EF919F918F912F910F900FBE0F901F90E8
:102EA00018958081F4CF1F920F920FB60F921124C4
:102EB0002F933F934F935F936F937F938F939F9342
:102EC000AF93BF93EF93FF938091B900887F8036D3
:102ED00009F44AC0F0F5883209F4A7C018F580312A
:102EE00009F49BC0B8F4882309F4F9C0883009F4C8
:102EF00094C0FF91EF91BF91AF919F918F917F917E
:102F00006F915F914F913F912F910F900FBE0F9056
:102F10001F901895883109F488C0803251F780934A
:102F2000F10114C0803409F49DC040F48033B9F33A
:102F30008833F9F68093F10185ECB0C0803509F44F
:102F400085C0883509F496C0883499F60E947916B0
:102F5000D0CF883909F48CC038F5883729F050F47F
:102F6000883611F0803729F683E08093F2011092C1
:102F7000F00157C0883809F47BC0803919F08038D7
:102F800009F0B7CF8091F001803208F071C0E09174
:102F9000F00181E08E0F8093F0018091BB00F0E0A2
:102FA000E053FE4F80833DC0803B39F0E0F4803A2F
:102FB00009F479C0883A09F09CCF84E08093F2014B
:102FC0001092CF011092CE01E0911B02F0911C02F1
:102FD00009958091CE0181110FC081E08093CE01CF
:102FE0001092AE0109C0803C09F4A6CF883C09F4D8
:102FF000A3CF883B09F07DCFE091CF0181E08E0F18
:103000008093CF01F0E0E255FE4F80818093BB00BA
:103010009091CF018091CE0129C0809117028093B9
:10302000BB0085EC8093BC0064CF90911602809128
:103030001502981758F5E091160281E08E0F8093E3
:103040001602F0E0EB50FE4F8081E9CFE0911602CE
:1030500081E08E0F809316028091BB00F0E0EB5070
:10306000FE4F808390911602809115029817C8F246
:1030700085E8D8CFE091160281E08E0F809316028A
:103080008091BB00F0E0EB50FE4F80838091F40113
:1030900081115CCF81E08093F30184EA8093BC00CE
:1030A0001092F20126CF85EC8093BC001092F201C1
:1030B0008091F001803230F4E091F001F0E0E053D3
:1030C000FE4F10826091F00170E0E0911902F091E2
:1030D0001A0280ED91E009951092F0010ACF10924A
:1030E000F10134CFE3E4F2E01382128248EE53E0C0
:1030F00060E070E0448355836683778388E191E0E4
:103100009183808385EC90E09587848784EC90E0C0
:103110009787868780EC90E0918B808B81EC90E0A4
:10312000938B828B82EC90E0958B848B86EC90E085
:10313000978B868B118E128E138E148EA0EEB2E0BA
:1031400013961C921E92129714964D935D936D9355
:103150007C9317978AE291E011969C938E93ECEE04
:10316000F2E01382128220E830E03583248380E489
:1031700090E0978386833187208793878287168A9A
:10318000158614861786168681E0858B848B2FEF33
:103190003FEF338B228B318B208B878B108E128EDF
:1031A000118E8CE391E091838083148E138EB68F01
:1031B000A58F10A2178E8FEF84A385A386A387A364
:1031C00080A780E89AE1A6E0B0E085AB96ABA7AB1C
:1031D000B0AF80EA96E8A1E0B0E081AF92AFA3AFD4
:1031E000B4AF80E586AF17AE0895789484B5826059
:1031F00084BD84B5816084BD85B5826085BD85B59B
:10320000816085BD80916E00816080936E00109218
:103210008100809181008260809381008091810093
:103220008160809381008091800081608093800024
:103230008091B10084608093B1008091B000816082
:103240008093B00080917A00846080937A008091AE
:103250007A00826080937A0080917A008160809306
:103260007A0080917A00806880937A001092C10081
:10327000E0915302F091540282E08083E0914F028A
:10328000F09150021082E0915102F091520287E6D3
:10329000808310925B02E0915702F091580286E021
:1032A0008083E0915502F091560280818061808395
:1032B000E0915502F0915602808188608083E09110
:1032C0005502F0915602808180688083E09155021A
:1032D000F091560280818F7D808380910B039091C5
:1032E0000C03892B41F52091F2023091F302C901C0
:1032F000079697FD0796B3E095958795BA95E1F700
:103300002091F0023091F102AC01429FC001439F35
:10331000900D529F900D11240E94AB1F90930C03AF
:1033200080930B03892B39F465E37AE083E492E020
:103330000E944806FFCF0E9425162091F20230918C
:10334000F3028091F0029091F102B901213231052E
:103350000CF47FC16054710977FF02C06F5F7F4F2B
:10336000759567958255910997FD019600E410E0E7
:1033700022E530E045E757E0959587950E94CE0E0F
:1033800082E080930E038091090390910A03892BB8
:1033900009F472C18CE380930D0310921E02109207
:1033A0001D021092400210923F020E94041086E417
:1033B00096E090931C0280931B0287E496E0909322
:1033C0001A02809319028091140387FD1DC00E9488
:1033D000830561E0809114030E94A30561E070E021
:1033E00080E090E00E94140660E0809114030E9447
:1033F000A3056AE070E080E090E00E94140661E0BE
:10340000809114030E94A3058091090390910A03FF
:10341000892B09F4E8C120912103309122034091C6
:1034200023035091240360E074E284EF90E00E9453
:10343000A71D2051310941095109569547953795E6
:1034400027952093B80064E081E995E00E94AF11D0
:103450006091F20261508CEE92E00E94641264E08E
:103460008DE895E00E94AF1180910E0364E18130F8
:1034700009F460E18CEE92E00E94641264E089E855
:1034800095E00E94AF118FE8809329038091F002AC
:103490009091F1028038910509F0BEC18091F2024D
:1034A0009091F3028034910509F0C6C180910E031A
:1034B000813009F4AFC18FEC80932903C2E16AED3A
:1034C0008CEE92E00E9464126C2F8CEE92E00E94CF
:1034D000641261E88CEE92E00E946412609129030C
:1034E0008CEE92E00E94641269ED8CEE92E00E94F4
:1034F000641280910E0361EF813009F462E28CEE78
:1035000092E00E94641266E083E895E00E94AF11A9
:103510008091090390910A03892B09F491C12091AC
:10352000250330912603409127035091280360E042
:1035300074E284EF90E00E94A71D205131094109F7
:10354000510956954795379527952093B8000E94C5
:10355000251683E00E94830560E083E00E94A305B6
:1035600084E00E94830560E084E00E94A30585E07A
:103570000E94830560E085E00E94A3050E94451635
:1035800022242A9453E0352E412C512CCC24C39470
:10359000D12C80910C0190910D01181619060CF098
:1035A0009BC280913502811197C28FB7F8948090A9
:1035B000370290903802A0903902B0903A028FBF43
:1035C0008091310290913202A0913302B091340285
:1035D000A5019401281B390B4A0B5B0BDA01C901C9
:1035E0004497A105B10508F47EC160910401709172
:1035F00005018091060190910701860F971F909316
:10360000070180930601409102015091030120912E
:103610000A0130910B01240F351F30930B012093C9
:103620000A01FC013197ED37F10538F0719561958C
:1036300071097093050160930401121613060CF4CE
:1036400009C15195419551095093030140930201DD
:1036500013C16052710977FF02C06F5F7F4F75958C
:1036600067958357910997FD019600E210E023E7E3
:1036700030E045E955E080CE809112030E94830539
:10368000809113030E94830580911203082E000C81
:10369000990BFC01EF57F54FE491F0E0EE0FFF1F9F
:1036A000E359F54F2591349130931A032093190370
:1036B000FC01EB56F54FE491E0931F038091130357
:1036C000082E000C990BFC01EF57F54FE491F0E048
:1036D000EE0FFF1FE359F54FA591B491B0931C0372
:1036E000A0931B03FC01EB56F54FE491E0932003FC
:1036F0008C91E82BEC938091070390910803892B20
:1037000089F1CFB7F89480911802811124C0EBE8B9
:10371000FAE08491EFE9FAE09491E82FF0E0EE0FFF
:10372000FF1FE958F54FA591B491EC91E92321F4DD
:1037300061E08AE00E94A3058AE00E9483058CB5BF
:1037400080618CBD8CB580648CBD8DE00E9483054A
:103750008BE00E948305809118028F5F809318028E
:10376000CFBF31CE809110030E9483058091110359
:103770000E94830580911003082E000C990BFC0118
:10378000EF57F54FE491F0E0EE0FFF1FE359F54FCF
:10379000259134913093160320931503FC01EB56C9
:1037A000F54FE491E0931D0380911103082E000C66
:1037B000990BFC01EF57F54FE491F0E0EE0FFF1F7E
:1037C000E359F54FA591B491B0931803A093170353
:1037D000FC01EB56F54FE491E0931E038C91E095CC
:1037E000E823EC93F0CD8091070390910803892B97
:1037F00031F080912A0390912B030E94E409E0911B
:103800001B03F0911C0390818091200380958923F4
:10381000808319CE8FE950CE8036910569F480916E
:10382000F2029091F302409739F480910E038130B7
:1038300029F08FEA80932903C2E041CE80E1FACFDC
:10384000E0911B03F0911C03808190912003892B50
:1038500080837DCE2A3331057CF060910001709128
:103860000101FC013296E617F70734F0625E7F4FE4
:10387000681779070CF0E5CE62E170E00E94761FD0
:103880006630710530F537FF02C0295F3F4F43E0D6
:10389000359527954A95E1F723303105D0F446E078
:1038A000429FC001439F900D1124815E9D4FFC01FA
:1038B000E60FF71F2081222361F010828091020120
:1038C00090910301919581959109909303018093C3
:1038D00002010E9450148092310290923202A09212
:1038E0003302B092340280E480937C0080917A00AD
:1038F000806480937A0080917A0086FDFCCFC0912D
:103900007800D09179006091000170910101F12C53
:10391000E12C04E010E02EE130E04CE350E08CEECE
:1039200092E00E94E80D22E630E0DE010E948A1F4C
:10393000A20191010E94881D309301012093000192
:103940000E94A2140E9425160E9450140E94A214E4
:103950009FE1A92E92E0B92E3501912C812CD0E067
:10396000C0E0F301EC0FFD1F8081882391F032E16C
:103970003C9FB0013D9F700D1124EE24E394F12C87
:1039800006E010E020E130E0A4018CEE92E00E941D
:10399000E80D2196C630D10521F746E0640E711C72
:1039A00058E0850E911C88E188169104C1F60E94AA
:1039B000C61280910A0190910B01813491050CF49B
:1039C00041C020E230E030930B0120930A01C09106
:1039D0000C01D0910D012197D0930D01C0930C01E2
:1039E0000E94BC141C161D060CF44DC081E080938F
:1039F00035020E94251682E0809300038093010324
:103A0000D092FF02C092FE02D092FD02C092FC0250
:103A100044E150E05093F9024093F8025093FB02C6
:103A20004093FA026FE47AE08CEE92E00E9448063E
:103A30000E94C61260ED77E080E090E00E941406DC
:103A40000E94451690E080E0F501E80FF91F208103
:103A5000211142C0019686309105B1F796E0A90E7A
:103A6000B11C21E332E02A153B0561F78091080182
:103A70009091090101968630910514F59093090102
:103A80008093080123C080E490E090930701809325
:103A9000060126E330E030930B0120930A01D09217
:103AA0000501C09204014FEF5FEF50930301409373
:103AB000020181E390E09093010180930001C2CF65
:103AC00042E050E0509309014093080180910801C1
:103AD000909109010E94DB1480E090E0892B09F4A9
:103AE00058CD0E94E306882309F453CD0E940000BC
:103AF00050CD8CE391E09093ED028093EC028091A5
:103B00000B0390910C03009711F00C94472008953B
:103B1000052E97FB1EF400940E949F1D57FD07D0B1
:103B20000E94A71D07FC03D04EF40C949F1D5095D6
:103B30004095309521953F4F4F4F5F4F0895909599
:103B40008095709561957F4F8F4F9F4F0895A1E2AB
:103B50001A2EAA1BBB1BFD010DC0AA1FBB1FEE1F07
:103B6000FF1FA217B307E407F50720F0A21BB30B52
:103B7000E40BF50B661F771F881F991F1A9469F7CE
:103B800060957095809590959B01AC01BD01CF012A
:103B90000895A29FB001B39FC001A39F700D811D26
:103BA0001124911DB29F700D811D1124911D089546
:103BB0005058BB27AA270E94F01D0C94CF1E0E94CC
:103BC000C11E38F00E94C81E20F039F49F3F19F43E
:103BD00026F40C94BE1E0EF4E095E7FB0C94B81E80
:103BE000E92F0E94E01E58F3BA1762077307840793
:103BF000950720F079F4A6F50C94021F0EF4E095D9
:103C00000B2EBA2FA02D0B01B90190010C01CA0196
:103C1000A0011124FF27591B99F0593F50F4503E41
:103C200068F11A16F040A22F232F342F4427585F33
:103C3000F3CF469537952795A795F0405395C9F74B
:103C40007EF41F16BA0B620B730B840BBAF0915003
:103C5000A1F0FF0FBB1F661F771F881FC2F70EC0A2
:103C6000BA0F621F731F841F48F487957795679575
:103C7000B795F7959E3F08F0B0CF9395880F08F061
:103C80009927EE0F9795879508950E944C1E68948A
:103C9000B1110C94031F08950E94E81E88F09F57ED
:103CA00098F0B92F9927B751B0F0E1F0660F771F60
:103CB000881F991F1AF0BA95C9F714C0B13091F056
:103CC0000E94021FB1E008950C94021F672F782F05
:103CD0008827B85F39F0B93FCCF38695779567951B
:103CE000B395D9F73EF490958095709561957F4F87
:103CF0008F4F9F4F0895E89409C097FB3EF490952D
:103D00008095709561957F4F8F4F9F4F9923A9F0B4
:103D1000F92F96E9BB279395F69587957795679543
:103D2000B795F111F8CFFAF4BB0F11F460FF1BC087
:103D30006F5F7F4F8F4F9F4F16C0882311F096E91A
:103D400011C0772321F09EE8872F762F05C06623C8
:103D500071F096E8862F70E060E02AF09A95660F81
:103D6000771F881FDAF7880F9695879597F908953A
:103D700097F99F6780E870E060E008959FEF80EC1E
:103D8000089500240A9416161706180609060895C1
:103D900000240A9412161306140605060895092E27
:103DA0000394000C11F4882352F0BB0F40F4BF2B96
:103DB00011F460FF04C06F5F7F4F8F4F9F4F0895D6
:103DC00057FD9058440F551F59F05F3F71F04795CC
:103DD000880F97FB991F61F09F3F79F087950895B1
:103DE000121613061406551FF2CF4695F1DF08C0D0
:103DF000161617061806991FF1CF869571056105ED
:103E000008940895E894BB2766277727CB0197F994
:103E100008950E941C1F0C94CF1E0E94C11E38F0F2
:103E20000E94C81E20F0952311F00C94B81E0C942B
:103E3000BE1E11240C94031F0E94E01E70F3959F78
:103E4000C1F3950F50E0551F629FF001729FBB2791
:103E5000F00DB11D639FAA27F00DB11DAA1F649F2D
:103E60006627B00DA11D661F829F2227B00DA11DE0
:103E7000621F739FB00DA11D621F839FA00D611D66
:103E8000221F749F3327A00D611D231F849F600D87
:103E9000211D822F762F6A2F11249F5750409AF0B0
:103EA000F1F088234AF0EE0FFF1FBB1F661F771F3C
:103EB000881F91505040A9F79E3F510580F00C9407
:103EC000B81E0C94031F5F3FE4F3983ED4F386952D
:103ED00077956795B795F795E7959F5FC1F7FE2BA7
:103EE000880F911D9695879597F9089597FB072E52
:103EF00016F4009407D077FD09D00E94911F07FCAB
:103F000005D03EF4909581959F4F089570956195E9
:103F10007F4F08950E94C91DB7FF0895821B930B20
:103F20000895AA1BBB1B51E107C0AA1FBB1FA61700
:103F3000B70710F0A61BB70B881F991F5A95A9F752
:103F400080959095BC01CD010895EE0FFF1F05905F
:103F5000F491E02D09940F931F93CF93DF93823058
:103F6000910510F482E090E0E0912E03F0912F0390
:103F700030E020E0B0E0A0E0309799F42115310561
:103F800009F44AC0281B390B24303105D8F58A8141
:103F90009B816115710589F1FB0193838283FE0189
:103FA00011C0408151810281138148175907E0F007
:103FB0004817590799F4109761F012960C931297CD
:103FC00013961C933296CF01DF91CF911F910F91E1
:103FD000089500932E0310932F03F4CF211531057C
:103FE00051F04217530738F0A901DB019A01BD01D6
:103FF000DF01F801C1CFEF01F9CF90932F03809338
:104000002E03CDCFFE01E20FF31F81939193225037
:10401000310939832883D7CF20912C0330912D0388
:10402000232B41F4209110013091110130932D0385
:1040300020932C0320910E0130910F0121153105A1
:1040400041F42DB73EB74091120150911301241B4A
:10405000350BE0912C03F0912D03E217F307A0F448
:104060002E1B3F0B2817390778F0AC014E5F5F4FCE
:104070002417350748F04E0F5F1F50932D034093D0
:104080002C03819391939FCFF0E0E0E09CCFCF93FE
:10409000DF930097E9F0FC01329713821282A0911E
:1040A0002E03B0912F03ED0130E020E01097A1F432
:1040B00020813181820F931F20912C0330912D0399
:1040C0002817390709F061C0F0932D03E0932C0302
:1040D000DF91CF910895EA01CE17DF07E8F54A8115
:1040E0005B819E0141155105B1F7E901FB83EA832C
:1040F00049915991C40FD51FEC17FD0761F48081D8
:1041000091810296840F951FE901998388838281AA
:1041100093819B838A83F0E0E0E012968D919C91DD
:1041200013970097B9F52D913C911197CD01029607
:10413000820F931F20912C0330912D0328173907EC
:1041400039F6309751F510922F0310922E03B09349
:104150002D03A0932C03BCCFD383C2834081518114
:10416000840F951FC817D90761F44E5F5F4F888190
:104170009981480F591F518340838A819B81938382
:1041800082832115310509F0B0CFF0932F03E0931E
:104190002E039ECFFD01DC01C0CF13821282D7CF48
:1041A00081E090E0F8940C94DC20DC0101C06D9378
:1041B00041505040E0F7089515E0C8E5D5E004C04F
:1041C000FE010E94A51F2196C935D107C9F7F894B1
:1041D000FFCF3100FFFF0100400001003600030067
:1041E0000000300380000000000019077906A606D1
:1041F0006607D706B506C9060000000099106C10C6
:104200004D14A20565105210431000000000220C4E
:1042100079064D14DC0F2D09A205C70E9F0EBB0EAB
:10422000AF0E2F0FA205E809F7139D08E608E80D69
:0A423000CB0D530DF40C0D0A000035
:107E0000112484B714BE81FFF0D085E080938100F7
:107E100082E08093C00088E18093C10086E0809377
:107E2000C20080E18093C4008EE0C9D0259A86E02C
:107E300020E33CEF91E0309385002093840096BBD3
:107E4000B09BFECF1D9AA8958150A9F7CC24DD24C4
:107E500088248394B5E0AB2EA1E19A2EF3E0BF2EE7
:107E6000A2D0813461F49FD0082FAFD0023811F036
:107E7000013811F484E001C083E08DD089C08234E0
:107E800011F484E103C0853419F485E0A6D080C0E4
:107E9000853579F488D0E82EFF2485D0082F10E0AE
:107EA000102F00270E291F29000F111F8ED06801E7
:107EB0006FC0863521F484E090D080E0DECF843638
:107EC00009F040C070D06FD0082F6DD080E0C81688
:107ED00080E7D80618F4F601B7BEE895C0E0D1E017
:107EE00062D089930C17E1F7F0E0CF16F0E7DF06D8
:107EF00018F0F601B7BEE89568D007B600FCFDCFD4
:107F0000A601A0E0B1E02C9130E011968C91119780
:107F100090E0982F8827822B932B1296FA010C0160
:107F200087BEE89511244E5F5F4FF1E0A038BF0790
:107F300051F7F601A7BEE89507B600FCFDCF97BE46
:107F4000E89526C08437B1F42ED02DD0F82E2BD052
:107F50003CD0F601EF2C8F010F5F1F4F84911BD097
:107F6000EA94F801C1F70894C11CD11CFA94CF0C13
:107F7000D11C0EC0853739F428D08EE10CD085E9AC
:107F80000AD08FE07ACF813511F488E018D01DD067
:107F900080E101D065CF982F8091C00085FFFCCF94
:107FA0009093C60008958091C00087FFFCCF809118
:107FB000C00084FD01C0A8958091C6000895E0E648
:107FC000F0E098E1908380830895EDDF803219F02E
:107FD00088E0F5DFFFCF84E1DECF1F93182FE3DFCA
:107FE0001150E9F7F2DF1F91089580E0E8DFEE27F6
:047FF000FF270994CA
:027FFE00040479
:00000001FF
