:100000000C948A060C94BB060C94BB060C94BB069D
:100010000C94BB060C94BB060C94BB060C94BB065C
:100020000C94BB060C94BB060C94BB060C94BB064C
:100030000C94BB060C94BB060C94BB060C94BB063C
:100040000C94BB060C94BB060C94BB060C94BB062C
:100050000C94BB060C94BB060C94BB060C94311B91
:100060000C94BB060C94A51B0C947B1B0C94BB0638
:100070000C94BB060C94BB060C94BB060C94BB06FC
:100080000C94BB060C94BB060C94BB060C94BB06EC
:100090000C94BB060C94BB060C94BB060C94DB1BA7
:1000A0000C94BB060C94BB060C94BB060C94BB06CC
:1000B0000C94BB060C94BB060C94BB060C94BB06BC
:1000C0000C94BB060C94BB060C94BB060C94BB06AC
:1000D0000C94BB060C94BB060C94BB060C94BB069C
:1000E0000C94BB060C94A1240C94CA170C945D08C4
:1000F0000C94C0130C9459080C94FA0B0C94CF1365
:100100000C94AD120C94CE110C9493090C94231002
:100110000C94410C0C9478080C94490A0C948C08AB
:100120000C9445120C9451080C94E2130C944B0857
:100130000C9459130C94FF1C0C94BD060C94FC0CED
:100140000C9474080C94FC090C9460080C94FA103C
:100150000C946A080C9470080C9464090C94660959
:100160000C94C4090C9465090C9466080C94EA116B
:100170000C947E080C94DE110C94A2090C9482104D
:100180000C948B080C94B10B0C94B6090C94900849
:100190000C9417110C94360F0C94E9130C9416144C
:1001A0000C9455080C9482080C9486080C947417CF
:1001B0003E2043494B4953203C0020204241534CB0
:1001C000415400202043494B4953003E20424153B3
:1001D0004C4154203C000000200023002600290050
:1001E0002C002F003200000100000301060109016C
:1001F00000000000003E5B4F5B3E3E6B4F6B3E1CC1
:100200003E7C3E1C183C7E3C181C577D571C1C5ED7
:100210007F5E1C00183C1800FFE7C3E7FF001824AE
:100220001800FFE7DBE7FF30483A060E2629792958
:1002300026407F050507407F05253F5A3CE73C5A8D
:100240007F3E1C1C08081C1C3E7F14227F22145F6A
:100250005F005F5F06097F017F006689956A6060C5
:1002600060606094A2FFA29408047E040810207EBF
:10027000201008082A1C08081C2A08081E10101044
:10028000100C1E0C1E0C30383E3830060E3E0E068A
:10029000000000000000005F0000000700070014DD
:1002A0007F147F14242A7F2A12231308646236499C
:1002B0005620500008070300001C22410000412284
:1002C0001C002A1C7F1C2A08083E08080080703089
:1002D00000080808080800006060002010080402F8
:1002E0003E5149453E00427F4000724949494621FE
:1002F00041494D331814127F1027454545393C4A72
:100300004949314121110907364949493646494988
:10031000291E0000140000004034000000081422D0
:10032000411414141414004122140802015909063E
:100330003E415D594E7C1211127C7F494949363E3F
:10034000414141227F4141413E7F494949417F0925
:100350000909013E414151737F0808087F00417F30
:1003600041002040413F017F081422417F4040402E
:10037000407F021C027F7F0408107F3E4141413EC6
:100380007F090909063E4151215E7F091929462648
:100390004949493203017F01033F4040403F1F204C
:1003A00040201F3F4038403F631408146303047823
:1003B00004036159494D43007F4141410204081043
:1003C00020004141417F040201020440404040407E
:1003D000000307080020545478407F2844443838EC
:1003E00044444428384444287F385454541800085E
:1003F0007E090218A4A49C787F0804047800447D38
:1004000040002040403D007F1028440000417F40D4
:10041000007C047804787C08040478384444443828
:10042000FC1824241818242418FC7C080404084808
:100430005454542404043F44243C4040207C1C2059
:1004400040201C3C4030403C44281028444C9090B4
:10045000907C4464544C440008364100000077000E
:1004600000004136080002010204023C2623263C1B
:100470001EA1A161123A4040207A385454555921A6
:10048000555579412254547842215554784020548E
:100490005579400C1E5272123955555559395454DC
:1004A000545939555454580000457C410002457D4B
:1004B000420001457C407D1211127DF0282528F074
:1004C0007C545545002054547C547C0A097F4932A1
:1004D000494949323A4444443A324A4848303A4118
:1004E00041217A3A42402078009DA0A07D3D4242C1
:1004F000423D3D4040403D3C24FF2424487E49434A
:10050000662B2FFC2F2BFF0929F620C0887E0903BC
:1005100020545479410000447D413048484A3238E3
:100520004040227A007A0A0A727D0D19317D26290F
:10053000292F28262929292630484D402038080807
:10054000080808080808382F10C8ACBA2F1028343B
:10055000FA00007B000008142A142222142A14082E
:100560005500550055AA55AA55AAFF55FF55FF003D
:100570000000FF00101010FF00141414FF001010F2
:10058000FF00FF1010F010F0141414FC001414F706
:1005900000FF0000FF00FF1414F404FC14141710F3
:1005A0001F10101F101F1414141F00101010F00043
:1005B0000000001F101010101F10101010F010007D
:1005C0000000FF101010101010101010FF1000008D
:1005D00000FF140000FF00FF00001F10170000FCC8
:1005E00004F414141710171414F404F40000FF009A
:1005F000F714141414141414F700F7141414171423
:1006000010101F101F141414F4141010F010F00028
:10061000001F101F0000001F14000000FC14000049
:10062000F010F01010FF10FF141414FF141010102D
:100630001F00000000F010FFFFFFFFFFF0F0F0F0E0
:10064000F0FFFFFF0000000000FFFF0F0F0F0F0F74
:100650003844443844FC4A4A4A347E0202060602C0
:100660007E027E0263554941633844443C04407E27
:10067000201E2006027E020299A5E7A5991C2A49A0
:100680002A1C4C7201724C304A4D4D30304878482B
:1006900030BC625A463D3E494949007E0101017E17
:1006A0002A2A2A2A2A44445F444440514A4440406A
:1006B000444A51400000FF0103E080FF00000808A9
:1006C0006B6B083612362436060F090F0600001829
:1006D000180000001010003040FF0101001F010150
:1006E0001E00191D1712003C3C3C3C00000000009D
:1006F000000103070F1F3F7F0080C0E0F0F8FCFE01
:10070000DB40A4A62EAF2000A1C8D300408DAED5FB
:1007100080A8000060000000000000000000000051
:10072000000000E0000000000000000000000000E9
:100730000001E000000000000000000000000000D8
:1007400001F00000000000000000000000000003B5
:10075000F00000000000000000000000000007F0B2
:100760000000000000000000000000000007F8008A
:100770000000000000000000000000000FF8000072
:100780000003C0007E000001E0007F0FF8000000C1
:1007900003C000FE000001E000FFEFF800000003CE
:1007A000C000FE000001E000FFFFF800000003C0F1
:1007B00000F00000000F007FFE7FC0000003C000BB
:1007C000F00000000F003FFE7FF83FF1FBCFFCFE82
:1007D000F3BC3DEFE01FFE7FFF7FFBFFDFFEFEFF70
:1007E000BC3DEFE01FC6FFFF7FFBFFDFFEFEFFBC4F
:1007F0003DEFE00FE3C7FE787BC3DE1EF0FFBC3D9C
:10080000EF0007FF87FC787BC3DE1EF0F83C3DEF6E
:100810000001FFFFF0007BC3C01EF0F03C3DEF0085
:1008200001F37FE03FFBC3CFFEF0F03C3DEF000360
:10083000E33F807FFBC3DFFEF0F03C3DEF0007E7C6
:100840003C00787BC3DE1EF0F03C3DEF0007FFBEAE
:1008500000787BC3DE1EF0F03C3DEF0007FFFE009A
:10086000787BC3DE1EF0F03C3DEF000FFFFE007F03
:10087000FBFFDFFEF0F03FFDEFE00FFFFF007FFB2F
:10088000FFDFFEF0F03FFDEFE00FF9FF003E79F9EA
:10089000CF9EF0F01F3DE7E01FF1FF0000000000D9
:1008A000000000000000001F80FF007FFFFFFFFF2F
:1008B000FFFFFFFFFFE01C007F007FFFFFFFFEB494
:1008C0006D888D18E000001F007FFFFFFFFE95ADD3
:1008D0007DB577E000000F007FFFFFFFFEA5AD9D17
:1008E0008D19E0000006007FFFFFFFFEB5ADEDB5FE
:1008F0007EE0000000000001800000000000000019
:100900000000038000000000000000000007C0009D
:10091000000000000000000007C000000000000010
:100920000000000FC00000000000000000001FE0F9
:100930000000000000000000001FE00000000000B8
:10094000000000003FE00000000000000000003F49
:10095000F00000000000000000007FF00000000038
:100960000000001FF87FF0000000000000003FFEC4
:100970007FF0000000000000003FFF7FF00000005B
:10098000000000001FFFFBE0000000000000000F5F
:10099000FFF9FFC00000000000000FFFF9FFF800A2
:1009A000000000000007FFF1FFFF00000000000052
:1009B00003FC73FFFF80000000000001FE3FFFFF0B
:1009C00080000000000000FF1E0FFF00000000007C
:1009D00000007FFE1FFC000000000000003FFFFF42
:1009E000F8000000000000000FDFFFE00000000042
:1009F0000000001F19FFC0000000000000003F3C85
:100A0000FF00000000000000007E7CF800000000F5
:100A1000000000007FFE7C0000000000000000FFDE
:100A2000FFFC0000000000000000FFFFFE000000CF
:100A30000000000000FFFFFE0000000000000001B9
:100A4000FFEFFE0000000000000001FFCFFE0000ED
:100A5000000000000003FF07FE000000000000008F
:100A600003FC07FE0000000000000003F003FE008E
:100A7000000000000000018000FE000000000000F7
:100A8000000000007E000000000000000000003EAA
:100A9000000000000000000000000C00000000004A
:100AA00000078000FC000003C0000000078001FC7C
:100AB000000003C0000000078001FC000003C0002C
:100AC0000000078001E00000001E00000007800118
:100AD000E00000001E007FE3F79FF9FDE7787BDF71
:100AE000C0FFF7FFBFFDFDFF787BDFC0FFF7FFBF53
:100AF000FDFDFF787BDFC0F0F787BC3DE1FF787B31
:100B0000DE00F0F787BC3DE1F0787BDE0000F78780
:100B1000803DE1E0787BDE007FF7879FFDE1E078B4
:100B20007BDE00FFF787BFFDE1E0787BDE00F0F7BA
:100B300087BC3DE1E0787BDE00F0F787BC3DE1E07B
:100B4000787BDE00F0F787BC3DE1E0787BDE00FFDC
:100B5000F7FFBFFDE1E07FFBDFC0FFF7FFBFFDE177
:100B6000E07FFBDFC07CF3F39F3DE1E03E7BCFC045
:100B70000000000000000000000000FFFFFFFFFF7A
:100B8000FFFFFFFFFFC0FFFFFFFFFD68DB111A3112
:100B9000C0FFFFFFFFFD2B5AFB6AEFC0FFFFFFFF07
:100BA000FD4B5B3B1A33C0FFFFFFFFFD6B5BDB6A56
:100BB000FDC04F79756E204261736C69796F722E3A
:100BC0002E2E0053636F72653A20004C6576656C7B
:100BD00020004F79756E756D757A610A676F737451
:100BE0006572646967696E697A0A696C6769206908
:100BF00063696E0A746573656B6B757220656465F5
:100C000072697A2E0000002100240027002A002D9E
:100C1000003000330001010000040107010A010057
:100C2000002200250028002B002E00310034000295
:100C3000010000050108010B010505050507050870
:100C4000080808020202020A0A080804040404014F
:100C50000101010101010103030303030303030471
:100C60000707070C0C0C0C0C0C0C0C020202020601
:100C7000060606060606060B0B0B0B0B0B0B0B01F1
:100C8000021020200808102040102040800201029D
:100C90000108040201010204081020408080402065
:100CA00010080402018004020180402010080402A0
:100CB000010804020101020408102040800102041E
:100CC000081020408000000A0B02090C0D0E0807D6
:100CD000030401000000000000000000000000000C
:100CE0000000000000000000000000000000000004
:100CF00000121110000000000000000000000000C1
:100D000000000000000000000000002200FF2100A1
:100D1000FF1CA12411241FBECFEFD1E2DEBFCDBF47
:100D200000E00CBF12E0A0E0B2E0EEE9F1E500E087
:100D30000BBF02C007900D92A63AB107D9F724E085
:100D4000A6EAB2E001C01D92A038B207E1F716E0B2
:100D5000C9E8D6E000E006C021970109802FFE0116
:100D60000E946927C838D10780E00807A9F70E94C8
:100D7000821D0C94BD280C94000008952F923F9280
:100D80004F925F926F927F928F929F92AF92BF929B
:100D9000CF92DF92EF92FF920F931F93CF93DF9347
:100DA000CDB7DEB76D970FB6F894DEBF0FBECDBFDF
:100DB0009A8789877C876B875E874D87388B2F87DB
:100DC000FC0111821082FB0111821082F901118253
:100DD0001082FA011182108220905504309056043E
:100DE000209153042C83F09050048F2D90E0988F25
:100DF0008F8B86E0F89E900111243E832D83A09076
:100E00004404B0904504E090510498E0E99E6001EC
:100E1000112491012C5F3F4F3A8B298BC10106961B
:100E20009C8B8B8B225031093A8F298F02969B83A2
:100E30008A8320E932E038872F8344244A94542C53
:100E4000AFEFBFEF8FEF9FE79C8F8B8F0FEF1FE709
:100E500070E060E050E040E0EF81F8858191F88734
:100E6000EF83882309F4C0C02114310409F487C03A
:100E70008A3041F4EA81FB8184918E9D600D711D61
:100E80001124E8CF8D3041F3E989FA899491EB89F7
:100E9000FC892491891700F32817F0F2E98DFA8D67
:100EA00025913491891BF7E08F9F200D311D11246E
:100EB000F901329684918983319694919D8B319674
:100EC00084918E8B319684912A5F3F4FF901F49182
:100ED000FD8F2C812223F1F03981632E712C680E55
:100EE000711C87FD7A942F89388D629E4001639E24
:100EF000900C729E900C1124840E951EA814B904B7
:100F00004CF4EA81FB8194919E9D600D711D11242A
:100F100050E040E02F2D382F3203C0011124840F00
:100F2000951F2E2D3D8D3203F00111249F01260FB8
:100F3000371F801791070CF48C01EB8DFC8D2E1759
:100F40003F0714F43C8F2B8FF981FF9D800D911D7D
:100F500011240197A817B9070CF4DC018D898E9D27
:100F6000200D311D112421503109421653060CF475
:100F700029019E899F9D400D511D11246DCF8A30FE
:100F800019F46C0D7D1D66CF8D3009F465CF2C8171
:100F9000222359F08D819E81840F951FA816B906D2
:100FA00024F46C0D7D1D50E040E02D813E81240F26
:100FB000351FC9010197A817B9070CF4DC01C60158
:100FC000860F971F0197481659060CF42C014017FD
:100FD00051070CF48A018B8D9C8D6817790714F4E6
:100FE0007C8F6B8FA90138CFA017B1075CF0E98522
:100FF000FA8511830083A01BB10B1196ED85FE8548
:10100000B183A0832B8D3C8D421653066CF0EB858B
:10101000FC8531832083421A530AFFEF4F1A5F0A7F
:10102000EF85F889518240826D960FB6F894DEBF45
:101030000FBECDBFDF91CF911F910F91FF90EF9029
:10104000DF90CF90BF90AF909F908F907F906F90E8
:101050005F904F903F902F9008958150823108F01B
:101060005AC0E82FF0E08827E75CF74F8F4F0C94C9
:10107000692759085D084B08510855088B08600816
:1010800066086A087008740878087E0882088B0869
:1010900086088C089008809180008F77809380006C
:1010A0000895809180008F7DF9CF80918000877FA7
:1010B000F5CF84B58F7784BD089584B58F7DFBCF40
:1010C0008091B0008F778093B00008958091B00038
:1010D0008F7DF9CF809190008F7780939000089555
:1010E000809190008F7DF9CF80919000877FF5CF20
:1010F0008091A0008F778093A00008958091A00038
:101100008F7DF9CF8091A000877FF5CF809120015E
:101110008F77809320010895809120018F7DF9CFF2
:1011200080912001877FF5CF1F93CF93DF93282FE6
:1011300030E0F901EB53F34F8491F901E158F34F9B
:10114000D491F901E75CF34FC491CC23A9F0162F99
:1011500081110E942D08EC2FF0E0EE0FFF1FE15EE1
:10116000F34FA591B4918FB7F894EC91111108C089
:10117000D095DE23DC938FBFDF91CF911F9108952F
:10118000DE2BF8CFCF93DF9390E0FC01E158F34FD3
:101190002491875C934FFC0184918823D1F090E0E7
:1011A000880F991FFC01EB5FF34FA591B491FC01EF
:1011B000E15EF34FC591D491623071F49FB7F8941A
:1011C0003C91822F809583238C93E8812E2B28835A
:1011D0009FBFDF91CF9108958FB7F894EC912E2B9C
:1011E0002C938FBFF6CF863309F480E090917B007B
:1011F000977F90937B008770806480937C008091C0
:101200007A00806480937A0080917A0086FDFCCF1A
:10121000809178009091790008953FB7F89480917B
:101220008B0390918C03A0918D03B0918E0326B512
:10123000A89B05C02F3F19F00196A11DB11D3FBF0E
:10124000BA2FA92F982F8827BC01CD01620F711DDD
:10125000811D911D42E0660F771F881F991F4A95D7
:10126000D1F708958F929F92AF92BF92CF92DF9263
:10127000EF92FF924B015C010E940D096B017C0112
:101280000E940D096C197D098E099F09683E734003
:1012900081059105A8F321E0821A9108A108B108FF
:1012A00088EEC80E83E0D81EE11CF11C8114910465
:1012B000A104B10429F7FF90EF90DF90CF90BF9089
:1012C000AF909F908F90089508950895AF92BF9228
:1012D000CF92DF92EF92FF920F931F93CF93DF9302
:1012E0006C017B018B01040F151FEB015E01AE1831
:1012F000BF08C017D10759F06991D601ED91FC9153
:101300000190F081E02DC6011995892B79F7C5016F
:10131000DF91CF911F910F91FF90EF90DF90CF90D1
:10132000BF90AF900895FC01538D448D252F30E080
:10133000842F90E0821B930B541710F0CF960895E2
:1013400001970895FC01918D828D981761F0A28D0F
:10135000AE0FBF2FB11D5D968C91928D9F5F9F73D5
:10136000928F90E008958FEF9FEF0895FC01918D8B
:10137000828D981731F0828DE80FF11D858D90E0F8
:1013800008958FEF9FEF0895FC01918D228D892F95
:1013900090E0805C9F4F821B91098F73992708957D
:1013A00083E993E00E94C40921E0892B09F420E03D
:1013B000822F0895FC01A48DA80FB92FB11DA35A47
:1013C000BF4F2C91848D90E001968F739927848F65
:1013D000A689B7892C93A089B1898C918370806488
:1013E0008C93938D848D981306C00288F389E02D29
:1013F00080818F7D80830895EF92FF920F931F93DA
:10140000CF93DF93EC0181E0888F9B8D8C8D9813B7
:101410001AC0E889F989808185FF15C09FB7F894C3
:10142000EE89FF896083E889F9898081837080640F
:1014300080839FBF81E090E0DF91CF911F910F915A
:10144000FF90EF900895F62E0B8D10E00F5F1F4F69
:101450000F731127E02E8C8D8E110CC00FB607FC78
:10146000FACFE889F989808185FFF5CFCE010E9406
:10147000DA09F1CFEB8DEC0FFD2FF11DE35AFF4F91
:10148000F0829FB7F8940B8FEA89FB898081806294
:10149000CFCFCF93DF93EC01888D8823B9F0AA8951
:1014A000BB89E889F9898C9185FD03C0808186FD1F
:1014B0000DC00FB607FCF7CF8C9185FFF2CF80816E
:1014C00085FFEDCFCE010E94DA09E9CFDF91CF9100
:1014D000089580E090E0892B29F00E94D0098111C5
:1014E0000E94000080E090E0892B49F080E090E0CD
:1014F000892B29F00E94000081110E94000080E0E9
:1015000090E0892B49F080E090E0892B29F00E943F
:10151000000081110E94000080E090E0892B49F0DA
:1015200080E090E0892B29F00E94000081110C944A
:1015300000000895EF92FF920F931F93CF93DF93D4
:10154000EC01EC80FD806E157F050CF070C057FF3C
:1015500004C0240F351F50E040E08E819F81FA01C6
:10156000E20FF31F8E179F071CF49C01241B350B01
:10157000121613060CF05BC0922F842F8695869569
:1015800086958E9DD0018F9DB00D11246A0F7B1F13
:10159000AF8DB8A1A60FB71F477049F188E0841B33
:1015A000482F682F70E0FB01E850F94FE4912817AD
:1015B00008F063C0621B71092FEF30E002C035955F
:1015C00027956A95E2F7E2230130110539F0B0F171
:1015D0000230110561F58C91E82702C08C91E82B4F
:1015E000EC93941720F12C813D81A20FB31FE92FBA
:1015F000E41BE83078F00230110521F58E2F9C9124
:1016000090959C932C813D81A20FB31F8850883008
:10161000B0F7E770EE2359F0F0E0E051F94FE491B4
:1016200001301105F9F010F10230110519F1DF91C7
:10163000CF911F910F91FF90EF900895E0958C91BD
:10164000E823CECF81E00115110509F480E08195F2
:101650009E2F8C932C813D81A20FB31F9850983000
:10166000C0F7D7CF8C91E82BEC93E1CFE0958C912C
:10167000E823FACF8C91E827F7CF0130110509F460
:10168000ADCFE0F20230110509F4A5CFAE0DBF1DBC
:10169000AECF0F931F93CF93DF9377FF04C0260F36
:1016A000371F70E060E0DC011496CD91DC91FB0106
:1016B000E20FF31FCE17DF071CF49E01261B370B2A
:1016C000121613064CF5FA0157FD3796A3E0F5956F
:1016D000E795AA95E1F7EC9FD001ED9FB00DFC9F37
:1016E000B00D11246A0F7B1FDC015F96ED91FC9118
:1016F000E60FF71F4770552781E090E001C0880F83
:101700004A95EAF7482F0130110559F0A8F02E0F3D
:101710003F1F02301105E1F0DF91CF911F910F9132
:1017200008952E0F3F1FE217F307B1F38191DF01F8
:101730001197842B8C93F7CF80952E0F3F1FE217C4
:10174000F30751F39191DF01119798239C93F7CF01
:10175000E217F30709F38191DF01119784278C9336
:10176000F7CF0F931F93FA01DC0156964C915697D1
:101770004230E9F04330A1F1413061F514964D91CA
:101780005C91DA01AE1BBF0BFD01E21BF30B77FD91
:101790000BC0DC0116964D915C916417750724F41B
:1017A000AB01BF010E94490B1F910F910895149640
:1017B0004D915C91DA01A61BB70BBD016150710917
:1017C000DC0116964D915C91DA01AE1BBF0BFD0159
:1017D000E21BF30B77FDE8CFAF010E949A0AE4CF3A
:1017E00016964D915C91DA01A61BB70BBD016150B5
:1017F0007109CDCF0F931F93FA01DC0156964C91DE
:1018000056974230A9F0433091F1413019F51496C2
:101810004D915C91DA01AE1BBF0BFD013197F7FDD5
:1018200004C0AB01BF010E949A0A1F910F91089555
:1018300014964D915C91DA01A61BB70BBD01DC013A
:1018400016964D915C91DA01AE1BBF0BFD013197ED
:10185000621B730BF7FDE9CFDC0116964D915C918D
:10186000E417F50714F7AF010E94490BDECF169677
:101870004D915C91DA01A61BB70BBD01621B730B86
:10188000CECFFC0177FD64C080859185681779070C
:101890000CF05EC057FD5CC08285938548175907E0
:1018A0000CF056C086898230B1F0833029F1813046
:1018B00041F484819581841B950BAB01BC0161507F
:1018C00071092130310509F108F443C02230310596
:1018D00009F463C0089584819581DC01A61BB70BD0
:1018E000BD016150710986819781DC01A41BB50B94
:1018F000AD0141505109E5CF86819781861B970B39
:10190000BA01AC0141505109DCCFCA0157FD07961D
:10191000A3E095958795AA95E1F7A481B5818A9F63
:1019200090018B9F300D9A9F300D1124620F731F11
:10193000078CF0A1E02DE60FF71F4770552721E037
:1019400030E001C0220F4A95EAF78081822B808324
:101950000895CA0157FD079633E0959587953A9506
:10196000E1F7A481B5818A9F90018B9F300D9A9FEA
:10197000300D1124620F731F078CF0A1E02DE60FCC
:10198000F71F4770552781E090E001C0880F4A9506
:10199000EAF7809590818923DACFCA0157FD07962F
:1019A00023E0959587952A95E1F7A481B5818A9FD3
:1019B00090018B9F300D9A9F300D1124620F731F81
:1019C000078CF0A1E02DE60FF71F4770552721E0A7
:1019D00030E001C0220F4A95EAF780818227B7CF15
:1019E00008958EBD00000DB407FEFDCF8EB508959D
:1019F0008CBD9DBD08950895FC016370668B848144
:101A0000958126813781613039F0633029F09187E3
:101A1000808733872287089531872087938782873D
:101A200008952F923F924F925F926F927F928F9282
:101A30009F92AF92BF92CF92DF92EF92FF920F935D
:101A40001F93CF93DF93CDB7DEB76A970FB6F894A5
:101A5000DEBF0FBECDBF9A8F898F7A8369834A011B
:101A6000D22E18870F833701BC2CDC0159962D919B
:101A70003C915A972115310509F015C118968D91A1
:101A80009C911997681779070CF0D7C11A968D9118
:101A90009C91481759070CF0D0C14C2C512CB6E042
:101AA000CB9E600D711D11247C876B87161617065F
:101AB0000CF0C3C1EA2DF0E0FA87E98793E0EE0F5E
:101AC000FF1F9A95E1F7F88BEF87CF01840F951FE1
:101AD000181619060CF0B1C1A98DBA8D58968C91C3
:101AE000811104C0BFEABD1508F4D394A98DBA8D45
:101AF000ED91FC9111970284F385E02DCD011995AC
:101B0000B5E0DB9EC0011124E981FA81FC83EB83FF
:101B1000312C212C9C0120513E4F388F2F8B4A2D88
:101B200050E05E8B4D8BEF89F88DE20DF31D4491F3
:101B30009E828D82D12CC12C69817A81620D731DA8
:101B40007A8B698B842F90E09C8B8B8BE98DFA8D3F
:101B5000A081B18140FF82C0F1E0BF126FC0AF121F
:101B60006DC01C96ED91FC912F813885A4014C0D20
:101B70005D1D69897A89898D9A8D1995EB89FC8912
:101B8000F595E7954E2F5FEFC51AD50A6D817E81D9
:101B90008D899E89680F791F7E836D8398E0C916B1
:101BA000D10481F6AFEF2A1A3A0AEB81FC81E40DE9
:101BB000F51DFC83EB83F5E02F16310409F0B3CF5C
:101BC0002F81388526153705B9F0A98DBA8DED918D
:101BD000FC91B1E0BB1257C0AB1255C069817A814C
:101BE0006B5F7F4F0088F189E02D830128E030E0B2
:101BF000A401898D9A8D1995A98DBA8DED91FC91CD
:101C000011970688F789E02DCD016A960FB6F894F2
:101C1000DEBF0FBECDBFDF91CF911F910F91FF901F
:101C2000EF90DF90CF90BF90AF909F908F907F907C
:101C30006F905F904F903F902F9019941E96ED916A
:101C4000FC91EF80F88409851A8592014D815E81AF
:101C50006B817C81898D9A8D199590CF2F813885E4
:101C60002615370509F48ACF31E0B31207C0A31255
:101C700005C01C96ED91FC91930178CF1E96ED91D5
:101C8000FC917301E0CF6B857C856419750906842E
:101C9000F785E02D73010F8518899201A401898DC4
:101CA0009A8D1995A9CFF90134969491329745915F
:101CB0005491D91AB7E0DB9E400D511D1124F90152
:101CC000259134913C8B2B8BFA0125903490FA01AD
:101CD0003296749031963491398B32966490319665
:101CE000449041E04C1518F04A1508F07FC0662D6D
:101CF000062C000C770B7C836B83842D042C000C4A
:101D0000990B9E838D83A98DBA8DED91FC911197CE
:101D10000284F385E02DCD011995512CD12CC12CD5
:101D2000EA2DF0E0FA87E9872B2D30E03C872B87FE
:101D3000A401440D511D47FC5A95588F4F8B698162
:101D40007A81660D711D67FC7A957E876D8779892A
:101D5000C71608F051CF2C2D30E04D815E81420F27
:101D6000531FA985BA854A9FC0014B9F900D5A9F6A
:101D7000900D1124FC01E80DF91DF88BEF87852DDE
:101D8000612C4F89588D420F531F5E8B4D8B67140A
:101D900008F050C044244394480E877041F4C101B8
:101DA0000196EB89FC89E20DF31DD4901C01D7FE4E
:101DB00019C0A98DBA8DED91FC91662D70E0B1E04E
:101DC000BB1219C0AB1217C02D853E85620F731F61
:101DD0000484F585E02D2F8138854D895E89898DB4
:101DE0009A8D1995DD0C6394842DD1CF1E821D82AE
:101DF0001C821B8288CF4B815C81640F751FAB8571
:101E0000BC856A9FC0016B9F900D7A9F900D112435
:101E100069817A81680F791F0684F785E02DEF804C
:101E2000F88409851A859D014F855889898D9A8D79
:101E30001995D8CF570CC3948ACF6A960FB6F894E9
:101E4000DEBF0FBECDBFDF91CF911F910F91FF90ED
:101E5000EF90DF90CF90BF90AF909F908F907F904A
:101E60006F905F904F903F902F9008958F929F9228
:101E7000AF92CF92EF92FF920F931F93CF93DF9386
:101E8000EC01262F898D9A8D009709F051C06A3098
:101E9000D1F41D861C868D8948E0849F9001112411
:101EA0008E859F85820F931F9F878E8781E090E0AC
:101EB000DF91CF911F910F91FF90EF90CF90AF9056
:101EC0009F908F9008956D3089F3CC88AD888F896D
:101ED0008823C1F08C859D8536E0C39E800D911DC1
:101EE0001124488559854817590764F44E855F8544
:101EF0001D861C8638E0A39EC0011124840F951F07
:101F00009F878E87EA88FB88088919894E855F85B7
:101F10006C857D85CE010E94110D2C898C859D8557
:101F200046E0249F800D911D11249D878C87BECF94
:101F30006A3069F41D861C86FC013896E4912D896F
:101F40008E859F85E29F800D911D1124ADCF6D3050
:101F500009F4ACCFFC0134963491631708F4A6CF92
:101F60003296E491E61708F4A1CFFC0132968590F1
:101F70009490462F431B342F47E0349F800C911CD4
:101F80001124F401329634913196E4913323A9F16E
:101F9000EE2399F1CC88F4013596E491AD884F8910
:101FA000442301F10E2E000CFF0BE30FF11DCE9E1A
:101FB000A001CF9E500D11246C857D85460F571FC3
:101FC00068857985641775076CF44E855F851D8675
:101FD0001C86FC013896E491AE9E400D511D1124E3
:101FE0005F874E87EA88FB88088919894E855F8557
:101FF0006C857D85CE010E94110DF4013496E4912B
:102000002C898C859D85E29F800D911D11248DCF9B
:102010000F931F93CF93DF938C01D0E0C0E0F801C2
:10202000EC0FFD1F6491662341F08CE394E00E9465
:10203000360F892B11F02196F2CFCE01DF91CF918F
:102040001F910F9108956F927F928F929F92AF92FE
:10205000BF92CF92DF92EF92FF920F931F93CF9395
:10206000DF93EC016B015A0139014801E881F981E4
:102070000284F385E02D1995E881F9810288F389BE
:10208000E02D87019301A501B601CE011995A501A7
:10209000480D591D41505109E881F9810288F389A1
:1020A000E02D9301B601CE011995E881F9810088F0
:1020B000F189E02D9401A501B601CE011995C60C58
:1020C000D71CB60161507109E881F9810088F18956
:1020D000E02D9401A501CE011995E881F9810688CA
:1020E000F789E02DCE01DF91CF911F910F91FF90E5
:1020F000EF90DF90CF90BF90AF909F908F907F90A8
:102100006F9019946F927F928F929F92AF92BF922D
:10211000CF92DF92EF92FF920F931F93CF93DF93B3
:102120005C01EB016A01490138018701DC01ED9195
:10213000FC916217730719F5641675062CF0962D3D
:10214000872D3A01C92ED82E9601261937092F5FFF
:102150003F4F048CF58DE02DA301BE01C5011995FB
:10216000DF91CF911F910F91FF90EF90DF90CF9073
:10217000BF90AF909F908F907F906F90089546157D
:10218000570591F42617370724F0892D4B01C22FEC
:10219000D82F9E01281939092F5F3F4F068CF78DE4
:1021A000E02DA601B401DACF0284F385E02D199564
:1021B000D501ED91FC910488F589E02D830194010E
:1021C000A601BE01C5011995D501ED91FC910688C6
:1021D000F789E02DC501DF91CF911F910F91FF90FD
:1021E000EF90DF90CF90BF90AF909F908F907F90B7
:1021F0006F901994EF92FF920F931F93DC011A9640
:102200000D911C911B9718962D913C911997ED916A
:10221000FC9100A0F1A1E02D7B0150E040E070E0D6
:1022200060E019951F910F91FF90EF9008954F92E4
:102230005F926F927F928F929F92AF92BF92CF9256
:10224000DF92EF92FF920F931F93CF93DF936C0176
:102250002B015A0139014801DC01ED91FC91028406
:10226000F385E02D1995E201640C751CD601ED9102
:10227000FC91C615D7055CF40088F189E02D870133
:102280009401A501BE01C60119952196EFCF0688DC
:10229000F789E02DC601DF91CF911F910F91FF903B
:1022A000EF90DF90CF90BF90AF909F908F907F90F6
:1022B0006F905F904F9019948F929F92AF92BF92C0
:1022C000CF92DF92EF92FF920F931F93CF93DF9302
:1022D000EC015B014A016901E881F9810284F3851F
:1022E000E02D199595012C0D3D1D21503109E881F6
:1022F000F9810488F589E02D78018401A401B501F4
:10230000CE011995E881F9810688F789E02DCE0183
:10231000DF91CF911F910F91FF90EF90DF90CF90C1
:10232000BF90AF909F908F9019948F929F92AF9291
:10233000BF92CF92DF92EF92FF920F931F93CF93B2
:10234000DF93EC015B014A0169017801E881F981C1
:102350000284F385E02D1995C80CD91C8601015023
:102360001109E881F9810488F589E02D9501A4011E
:10237000B501CE011995E881F9810688F789E02D2C
:10238000CE01DF91CF911F910F91FF90EF90DF90E1
:10239000CF90BF90AF909F908F901994EF92FF9243
:1023A0000F931F93DC01ED91FC9100A0F1A1E02DB2
:1023B00019951F910F91FF90EF9008950F931F9320
:1023C000DC01ED91FC91068CF78DE02D19951F91A4
:1023D0000F9108950F931F93DC01ED91FC91048CF4
:1023E000F58DE02D19951F910F910895AF92BF9231
:1023F000CF92DF92EF92FF920F931F93CF93DF93D1
:10240000EC017B015B0182E0A81AB1088A0125E09A
:1024100030E0A501BE018CE394E00E94EA11BE0108
:102420006F5F7F4F25E030E0A5018CE394E00E94D0
:10243000EA11BE016150710925E030E0A5018CE38D
:1024400094E00E94EA1181E0E81AF108BE016E5F93
:102450007F4F23E030E0A7018CE394E00E94EA1173
:10246000BE016250710923E030E0A7018CE394E0E3
:102470000E94EA11DF91CF911F910F91FF90EF9091
:10248000DF90CF90BF90AF900895DC01ED91FC916B
:102490000084F185E02D19943F924F925F926F92E4
:1024A0007F928F929F92AF92BF92CF92DF92EF92E4
:1024B000FF920F931F93CF93DF935C017B014A013F
:1024C0006901390187E0680E711C93E07594679487
:1024D0009A95E1F72B01400E511E10E000E0312CDF
:1024E000D0E0C0E0CE0187709927330C892B59F4D6
:1024F000FE0183E0F595E7958A95E1F7E00FF11F7E
:10250000E80DF91D349037FE0AC021E030E0A70144
:10251000B5016C0F7D1F8CE394E00E94451221965B
:10252000CC16DD06F9F68FEFE81AF80A060D171D2E
:10253000E414F504A9F6DF91CF911F910F91FF905C
:10254000EF90DF90CF90BF90AF909F908F907F9053
:102550006F905F904F903F9008952F923F924F92CF
:102560005F926F927F928F929F92AF92BF92CF9223
:10257000DF92EF92FF920F931F93CF93DF9300D0E0
:1025800000D0CDB7DEB73C016A013E832D83FC82CB
:10259000EB825801A41AB50AB7FE03C0B194A19406
:1025A000B1088D809E80861A970A97FE03C0919489
:1025B000819491088A149B045CF0902F812F0D81E7
:1025C0001E819D838E839C2D8D2D6B01692F782F0D
:1025D0000C151D055CF09D818E817E836D83692FB6
:1025E000782F902F812F8601C92ED82E1601201A00
:1025F000310A2B012D813E81421A530A57FE03C036
:10260000519441945108710137FE03C03FEFE31A22
:10261000F30AF594E7948D819E81861797075CF500
:10262000A1E0B0E0BA83A983C016D1064CF1D30172
:10263000ED91FC910484F585E02D2B813C81A8016E
:102640006D817E818A149B041CF04D815E81B801EE
:10265000C3011995E418F508F7FE0AC02D813E81E3
:1026600089819A81280F391F3E832D83E20CF31C48
:102670000F5F1F4FD9CF2FEF3FEF3A832983D4CF7E
:1026800026960FB6F894DEBF0FBECDBFDF91CF9177
:102690001F910F91FF90EF90DF90CF90BF90AF9080
:1026A0009F908F907F906F905F904F903F902F9072
:1026B0000895089520911003260F3327331F2132E8
:1026C0003105ECF420913403FC0190E080E02430EB
:1026D00069F082E00895A09110032191AC0140516E
:1026E0005D4FA40FB52FB11D2C930196861798F35B
:1026F00080911003680F6093100380E0089581E0DB
:1027000008951092340381E08093360310923503CC
:1027100061E084E10E94940861E085E10E949408F0
:10272000E9EBF0E080818E7F808380818D7F8083E4
:1027300088E48093B80085E48093BC000895CF932B
:10274000DF9391E09093EF028823B9F0C091B80035
:10275000D091BA008091BC008A7B8093BC0060E07D
:1027600084E10E94940860E085E10E9494080E9440
:102770008113D093BA00C093B800DF91CF91089530
:10278000E091600380915F03E81730F4F0E0E653D6
:10279000FD4F808190E008958FEF9FEF0895909115
:1027A000600380915F032FEF3FEF981748F4E92F04
:1027B000F0E0E653FD4F208130E09F5F909360038F
:1027C000C901089580915F0390916003891B990B63
:1027D0000895CF92DF92EF92FF920F931F93CF93C2
:1027E000DF937C01CB018A0120919203222389F09F
:1027F000EB016B01C40ED51ECC15DD0569F06991A6
:10280000D701ED91FC910190F081E02DC701199560
:10281000F3CF642F0E945A13C801DF91CF911F910B
:102820000F91FF90EF90DF90CF900895CF93DF93BB
:102830001F92CDB7DEB76983209192032223F9F06E
:1028400020918F03203258F021E030E0FC013383E7
:10285000228390E080E00F90DF91CF9108958091E6
:102860009003E82FF0E0E655FD4F998190838F5F4C
:102870008093900380938F0381E090E0ECCF61E040
:10288000CE0101960E945A13F7CFCF92DF92EF92BA
:10289000FF920F931F93CF93DF93D0918F0381E02B
:1028A000D13208F09CC0C09191030E940D096B01C8
:1028B0007C018091340381116CC082E080933403E9
:1028C00081E0809336038FEF809333031092580397
:1028D000D0935703AAEAB2E0E7E3F3E080E0D8132D
:1028E0008DC01092590380915903CC0FC82BC0930F
:1028F000590380913503813009F084C0109235036B
:102900000E940D096B017C01809159038093BB00EB
:102910008091EB029091EC02A091ED02B091EE0259
:10292000892B8A2B8B2BA1F00E940D090091EB02C1
:102930001091EC022091ED023091EE026C197D09AC
:102940008E099F09061717072807390708F442C0A0
:102950008091BC0083FDD8CF85EC8093BC000E94A1
:102960000D096B017C0180913403823009F44CC065
:10297000809133038F3F09F469C080913303803223
:1029800009F466C080913303803309F463C084E0A6
:1029900026C08091EB029091EC02A091ED02B091E3
:1029A000EE02892B8A2B8B2B09F483CF0E940D0911
:1029B0000091EB021091EC022091ED023091EE02B9
:1029C0006C197D098E099F09061717072807390713
:1029D00008F06FCF8091EA020E949F1385E0109269
:1029E000900310928F0310929203DF91CF911F9169
:1029F0000F91FF90EF90DF90CF9008959D9191936C
:102A00008F5F6DCF85EEA9CF8091EB029091EC02A4
:102A1000A091ED02B091EE02892B8A2B8B2B09F449
:102A2000A2CF0E940D090091EB021091EC022091BF
:102A3000ED023091EE026C197D098E099F0906178F
:102A400017072807390708F08ECFC4CF80E0C7CF1B
:102A500082E0C5CF83E0C3CFEF92FF920F931F9325
:102A6000CF93DF937C01C62F8091590490915A0433
:102A7000009709F459C020915D0431E0309392032E
:102A8000209391031092900310928F03DC01ED913B
:102A9000FC910190F081E02D60E019958701EE2412
:102AA000E394F12CD1E0C1508091590490915A04E3
:102AB000CF3F91F1B0E2EB16F104D8F00E9445143B
:102AC0008091590490915A0420915D04D09392030F
:102AD000209391031092900310928F03DC01ED91EB
:102AE000FC910190F081E02D60E01995EE24E394D3
:102AF000F12C8091590490915A04F8016491DC0101
:102B0000ED91FC910190F081E02D1995BFEFEB1A4A
:102B1000FB0A0F5F1F4FC7CFDF91CF911F910F911E
:102B2000FF90EF900C944514E0916904F0916A04D1
:102B3000908180916F048095892380838701C150A3
:102B400008F438C0F801849120915704309158045A
:102B5000232B29F00E94F10C0F5F1F4FF0CF28E0CC
:102B600030E040E8E0916504F091660490916D04D6
:102B7000582F5423D9F05081952B9083E09167040E
:102B8000F0916804908150916E04952B9083E091B0
:102B90006704F0916804508190916E04909595239C
:102BA0009083469521503109E9F6D6CF5081909512
:102BB0009523E3CFDF91CF911F910F91FF90EF907D
:102BC00008951F93CF93DF93EC018D8D9E8D009719
:102BD00021F1162F29A131E0309392032093910324
:102BE0001092900310928F03DC01ED91FC91019003
:102BF000F081E02D60E019958D8D9E8DDC01ED91C9
:102C0000FC910190F081E02D612F19958D8D9E8DA5
:102C1000DF91CF911F910C944514ADA5BEA59C9159
:102C20008BA9809589238C938B8D9C8D892B31F07A
:102C3000862FDF91CF911F910C94F10C28E030E0AA
:102C400080E8A9A5BAA599A9462F4823C1F04C91BF
:102C5000942B9C93ABA5BCA59C914AA9942B9C93C7
:102C6000ABA5BCA54C919AA9909594239C9386956D
:102C70002150310931F7DF91CF911F9108954C9187
:102C800090959423E6CFDF92EF92FF920F931F93DC
:102C9000CF93DF938091590490915A04892B09F4C2
:102CA00098C0209171043091720440917304509146
:102CB000740460E074E284EF90E00E948625205165
:102CC0003109410951095695479537952795209324
:102CD000B80065E08BE09DE00E942C1560914004F7
:102CE00061508CE394E00E94E11520914204309100
:102CF0004304C901079697FD079633E0959587959C
:102D00003A95E1F72091400430914104829F80017F
:102D1000839F100D929F100D1124C0915B04D091E0
:102D20005C048091590490915A040C0F1D1F009768
:102D300009F48FC020915D0431E030939203209319
:102D400091031092900310928F03DC01ED91FC919E
:102D50000190F081E02D60E41995EE24E394F12CCC
:102D6000DD24D3948091590490915A040C171D07C7
:102D700009F446C0B0E2EB16F104D8F00E94451405
:102D80008091590490915A0420915D04D09292034D
:102D9000209391031092900310928F03DC01ED9128
:102DA000FC910190F081E02D60E41995EE24E3940C
:102DB000F12C8091590490915A046991DC01ED91B4
:102DC000FC910190F081E02D1995BFEFEB1AFB0A01
:102DD000C9CF8091570490915804892B31F080918C
:102DE0007A0490917B040E94F80CE0916B04F091BE
:102DF0006C0490818091700480958923808369CFD1
:102E00000E9445148091590490915A04892B09F429
:102E100061C02091750430917604409177045091FF
:102E2000780460E074E284EF90E00E9486252051EF
:102E300031094109510956954795379527952093B2
:102E4000B800DF91CF911F910F91FF90EF90DF902D
:102E50000895E0916904F0916A04808190916F0473
:102E6000892B80830C171D0769F2899120915704E3
:102E700030915804232B19F00E94F10CF3CF28E075
:102E800030E040E8E0916504F091660490916D04B3
:102E9000582F5423D9F05081952B9083E0916704EB
:102EA000F0916804908150916E04952B9083E0918D
:102EB0006704F0916804508190916E049095952379
:102EC0009083469521503109E9F6CCCF50819095F9
:102ED0009523E3CFE0916B04F0916C048081909195
:102EE0007004892B8083ADCF1F93CF93DF93EC01C8
:102EF000162F8D8D9E8D892BB1F12DA93EA94FA93D
:102F000058AD60E074E284EF90E00E948625205185
:102F100031094109510956954795379527952093D1
:102F2000B80066EA111167EACE010E94E1158D8DA5
:102F30009E8D892B41F129AD3AAD4BAD5CAD60E082
:102F400074E284EF90E00E94862520513109410906
:102F5000510956954795379527952093B800DF91ED
:102F6000CF911F9108958B8D9C8D892B21F08EAD73
:102F70009FAD0E94F80CEFA5F8A990818CA98095CF
:102F800089238083CECFEFA5F8A980819CA9892BC6
:102F90008083E5CF90E080E008950F931F93CF9357
:102FA000DF930CE212E0D0E0C0E0F80180810E5F18
:102FB0001F4F20910A0230910B0261E0C217D30724
:102FC0000CF060E00E9494082196C330D10569F7A7
:102FD000DF91CF911F910F910895CF93DF93C0910F
:102FE0000A02D0910B022197D0930B02C0930A02E0
:102FF0000E94CD171C161D06C4F480E490E0909347
:1030000001028093000280E290E090930D02809391
:103010000C0282E090E090930702809306028EEF0C
:103020009FEF9093050280930402DF91CF91089562
:10303000CF93DF939C01FC01EB53F34F8491F90193
:10304000E158F34FD491F901E75CF34FC491C111FA
:1030500030C02FB7F8948091870390918803A09196
:103060008903B0918A032FBF4091A6025091A70215
:103070006091A8027091A902841B950BA60BB70B57
:10308000C397A105B10520F12FB7F894809187036C
:1030900090918803A0918903B0918A032FBF8093F8
:1030A000A6029093A702A093A802B093A90281E080
:1030B00010C081110E942D08EC2FF0E0EE0FFF1FD1
:1030C000EA52FE4FA591B491EC91ED2309F4C1CFE2
:1030D00080E0DF91CF910895EF92FF920F931F93BD
:1030E000CF93DF9302E312E0D0E0C0E0880F991F96
:1030F000FC01E85EFD4FE080F180F80180810E5F09
:103100001F4FB7010C2E02C0759567950A94E2F720
:1031100061700E9494082196C730D10571F7DF9144
:10312000CF911F910F91FF90EF9008950F931F93F0
:10313000CF93DF9380917D0390917E036AE070E0EE
:103140000E9455278B01EC0161E08EE10E949408FA
:1031500060E08DE10E949408C8010E946C1861E053
:1031600070E080E090E00E9432091C161D06ACF46D
:1031700061E08DE10E94940860E08EE10E94940875
:10318000CE010E946C1861E070E080E090E0DF9179
:10319000CF911F910F910C943209DF91CF911F9124
:1031A0000F9108959F92AF92BF92CF92DF92EF92CC
:1031B000FF920F931F93CF93DF9397E6A92E93E08F
:1031C000B92ED12CC12C22E1922ED0E0C0E0F50125
:1031D000EC0FFD1F8081882389F09C9EB0019D9E8D
:1031E000700D1124EE24E394F12C06E010E020E1B0
:1031F00030E0A6018CE394E00E9417112196C630BE
:10320000D10529F786E0A80EB11C88E0C80ED11CB4
:1032100088E1C816D104C9F6DF91CF911F910F91B3
:10322000FF90EF90DF90CF90BF90AF909F90089568
:10323000CF92DF92EF92FF92CF93DF93EC01BC012C
:1032400061507109072E000C880B990B0E945C26B7
:103250002DEC3CEC4CE45EE30E94E82620E030E0FC
:1032600040E85FE30E94B8256B017C01AC019B0143
:103270000E94B8250E9424267093070260930602DC
:1032800020E030E040E050ECC701B6010E94E826A3
:103290000E9424267093050260930402E7E6F3E09F
:1032A00089E793E0DF011C9211961C921197129608
:1032B0001C92129713961C92139714961C921497B3
:1032C00015961C92159716968A179B0761F7C330BF
:1032D000D10509F471C0A4F481E0C130D10509F42D
:1032E00085C0229709F470C081E080838183828346
:1032F0008383848385833696EA17FB07B1F731C051
:10330000C430D10509F122E030E042E050E061E054
:10331000259751F7DA01A21BB30B90E080E08A17E2
:103320009B0719F02817390721F4EF01C80FD91F9F
:10333000688301968630910591F7215031093696C0
:103340002F3F320739F70DC081E0809367038093E8
:103350006C0380936E038093710380937503809355
:1033600076030E94D2180E94CD170E94961880E41E
:1033700090E0909301028093000280E290E09093AD
:103380000D0280930C0282E090E0909307028093FC
:1033900006028EEF9FEF909305028093040281E373
:1033A00090E09093030280930202DF91CF91FF900F
:1033B000EF90DF90CF90089581E080936903809330
:1033C0006F0380937503CDCF81E080936703809373
:1033D00068038093690380936D0380936E038093E9
:1033E0006F038093730380937403EBCF8083818397
:1033F00082838383848385833696AE17BF07B1F7B4
:10340000B0CF60910C0270910D0241E050E08091CC
:103410000002909101020C94F611EF92FF920F932B
:103420001F936091020270910302EE24E394F12C49
:1034300004E010E02EE130E04CE350E08CE394E057
:103440000E9417111F910F91FF90EF900895FC01BA
:1034500001900020E9F73197AF01481B590BBC01DF
:103460008CE394E00C946609CF93DF930E940810DC
:10347000EC0183EA92E00E94271A8C0F9D1FDF91D6
:10348000CF9108958F929F92AF92BF920F931F9307
:10349000CF93DF93CDB7DEB7A1970FB6F894DEBF19
:1034A0000FBECDBF19A2423008F44AE08E010F5D75
:1034B0001F4F842E912CB12CA12CA50194010E94A8
:1034C0008625E62FB901CA01EA30F4F4E05DD8019F
:1034D000EE938D01232B242B252B79F790E080E0B0
:1034E000109719F0CD010E94271AA1960FB6F894F3
:1034F000DEBF0FBECDBFDF91CF911F910F91BF9067
:10350000AF909F908F900895E95CE1CFCF92DF92CA
:10351000EF92FF92CF93DF936B017C016DE28CE31E
:1035200094E00E94360FEC0166277727CB016C19D7
:103530007D098E099F094AE00E94421A8C0F9D1F47
:10354000DF91CF91FF90EF90DF90CF900895209181
:10355000420430914304C901079697FD079623E082
:10356000959587952A95E1F7209140043091410483
:10357000829FA001839F500D929F500D112470E0F7
:1035800060E080915B0490915C040C94B6280E94EA
:10359000A71A82E0809350048093510481E090E068
:1035A00090934F0480934E0490934D0480934C0469
:1035B000109249041092480410924B0410924A044D
:1035C0008091610390916203892B51F48BEC91E01F
:1035D0000E94341A83EC91E00E94341A0C94431632
:1035E0008AEB91E00E94341A80EB91E0F5CF0E94C3
:1035F000B12885ED8093BC008091EB029091EC02A4
:10360000A091ED02B091EE020796A11DB11D23E03D
:10361000B695A795979587952A95D1F72091BC00E7
:1036200024FD03C01092340308954091EB025091A1
:10363000EC026091ED027091EE02452B462B472B78
:1036400069F30097A105B10541F02AE22A95F1F747
:1036500000C00197A109B109E1CF8091EA020C9461
:103660009F131F920F920FB60F9211242F933F9327
:103670008F939F93AF93BF9380918703909188031B
:10368000A0918903B0918A033091860323E0230F30
:103690002D3758F50196A11DB11D20938603809307
:1036A000870390938803A0938903B0938A03809142
:1036B0008B0390918C03A0918D03B0918E030196A2
:1036C000A11DB11D80938B0390938C03A0938D0358
:1036D000B0938E03BF91AF919F918F913F912F91A6
:1036E0000F900FBE0F901F90189526E8230F02969B
:1036F000A11DB11DD2CF1F920F920FB60F921124B0
:103700000BB60F922F933F934F935F936F937F93DB
:103710008F939F93AF93BF93EF93FF9383E993E0CE
:103720000E94DA09FF91EF91BF91AF919F918F9124
:103730007F916F915F914F913F912F910F900BBEB1
:103740000F900FBE0F901F9018951F920F920FB6FB
:103750000F9211240BB60F922F938F939F93EF9399
:10376000FF93E091A303F091A4038081E091A9036A
:10377000F091AA0382FD1DC090818091AC038F5F00
:103780008F732091AD03821741F0E091AC03F0E01C
:10379000ED56FC4F958F8093AC03FF91EF919F9175
:1037A0008F912F910F900BBE0F900FBE0F901F9017
:1037B00018958081F2CF1F920F920FB60F921124AD
:1037C0000BB60F922F933F934F935F936F937F931B
:1037D0008F939F93AF93BF93EF93FF938091B90023
:1037E000887F803609F44DC008F040C0883209F463
:1037F000A9C028F5803109F49DC0C8F4882309F4D4
:10380000FBC0883009F496C0FF91EF91BF91AF9152
:103810009F918F917F916F915F914F913F912F91E8
:103820000F900BBE0F900FBE0F901F901895883110
:1038300009F488C0803241F78093330314C0803488
:1038400009F49DC040F48033B9F38833E9F68093DE
:10385000330385ECB0C0803509F485C0883509F4A0
:1038600096C0883489F60E94F91ACECF883909F4B7
:103870008CC038F5883729F050F4883611F080373D
:1038800019F683E0809334031092320357C08838CE
:1038900009F47BC0803919F0803809F0B5CF8091E8
:1038A0003203803208F071C0E091320381E08E0F64
:1038B000809332038091BB00F0E0EE5EFC4F80838A
:1038C0003DC0803B39F0E0F4803A09F479C0883A91
:1038D00009F09ACF84E08093340310921103109280
:1038E0001003E0915D03F0915E0319958091100340
:1038F00081110FC081E0809310031092F00209C083
:10390000803C09F4A6CF883C09F4A3CF883B09F09A
:103910007BCFE091110381E08E0F80931103F0E0E3
:10392000E051FD4F80818093BB0090911103809105
:10393000100329C0809159038093BB0085EC8093CC
:10394000BC0062CF9091580380915703981758F5A7
:10395000E091580381E08E0F80935803F0E0E95C1A
:10396000FC4F8081E9CFE091580381E08E0F809376
:1039700058038091BB00F0E0E95CFC4F808390919C
:103980005803809157039817C8F285E8D8CFE09183
:10399000580381E08E0F809358038091BB00F0E0C4
:1039A000E95CFC4F80838091360381115CCF81E01C
:1039B0008093350384EA8093BC001092340324CFB3
:1039C00085EC8093BC0010923403809132038032E6
:1039D00030F4E0913203F0E0EE5EFC4F1082609133
:1039E000320370E0E0915B03F0915C0382E193E0CD
:1039F00019951092320308CF1092330334CFE3E9C4
:103A0000F3E01382128248EE53E060E070E04483FA
:103A100055836683778384E492E09183808385EC89
:103A200090E09587848784EC90E09787868780EC88
:103A300090E0918B808B81EC90E0938B828B82EC79
:103A400090E0958B848B86EC90E0978B868B118E23
:103A5000128E138E148EA0E3B4E013961C921E9265
:103A6000129714964D935D936D937C93179786E50B
:103A700092E011969C938E93ECE3F4E01382128211
:103A800020E830E03583248380E490E097838683C8
:103A90003187208793878287168A15861486178632
:103AA000168681E0858B848B2FEF3FEF338B228B43
:103AB000318B208B878B108E128E118E88E692E0D0
:103AC00091838083148E138EB68FA58F10A2178ECC
:103AD0008FEF84A385A386A387A380A780E89AE1BC
:103AE000A6E0B0E085AB96ABA7ABB0AF80EA96E8B6
:103AF000A1E0B0E081AF92AFA3AFB4AF80E586AFF5
:103B000017AE0895CF93DF9300D000D000D01F925E
:103B1000CDB7DEB7789484B5826084BD84B581600A
:103B200084BD85B5826085BD85B5816085BD809188
:103B30006E00816080936E00109281008091810000
:103B400082608093810080918100816080938100F8
:103B5000809180008160809380008091B1008460BA
:103B60008093B1008091B00081608093B00080911B
:103B70009100826080939100809191008160809398
:103B80009100809190008160809390008091A100CD
:103B900082608093A1008091A10081608093A10048
:103BA0008091A00081608093A000809121018260BB
:103BB0008093210180912101816080932101809176
:103BC000200181608093200180917A00846080933D
:103BD0007A0080917A00826080937A0080917A00E6
:103BE000816080937A0080917A00806880937A0067
:103BF0001092C100E091A303F091A40382E08083BE
:103C0000E0919F03F091A0031082E091A103F09155
:103C1000A20387E680831092AB03E091A703F091A3
:103C2000A80386E08083E091A503F091A60380813C
:103C300080618083E091A503F091A6038081886074
:103C40008083E091A503F091A60380818068808342
:103C5000E091A503F091A60380818F7D808362E0CF
:103C600082E20E94C20862E083E20E94C20862E02F
:103C700084E20E94C20880915B0490915C04892BCD
:103C800011F10E94A71A20914204309143048091BF
:103C9000400490914104213231050CF0A8C0B901D3
:103CA0006052710977FF02C06F5F7F4F759567950E
:103CB0008357910997FD019600E210E023E730E079
:103CC00042E157E0A7C02091420430914304C9016A
:103CD000079697FD0796B3E095958795BA95E1F716
:103CE0002091400430914104AC01429FC001439FA8
:103CF000900D529F900D11240E948C2790935C048C
:103D000080935B04892B09F0BCCF0E94431664EFBB
:103D100071E080E090E00E9432090E94A71A0E94A0
:103D2000C71A02E312E0D8018C910E5F1F4F61E0C9
:103D30000E94C208B2E000341B07A9F761E082E3E9
:103D40000E94C20861E084E30E94C20861E08FE142
:103D50000E94C20861E08FE10E94940861E080E265
:103D60000E94C20861E080E20E94940861E081E262
:103D70000E94C20861E081E20E9494080E94A71A92
:103D800080E00E94F308BC01990F880B990B611524
:103D900071058105910511F00E944B2529E733E05B
:103DA00017E6A12E13E0B12E81E0F5018083818317
:103DB0008283838384838583F6E0AF0EB11C2A154A
:103DC0003B0599F70E949618CC24C394D12C80917E
:103DD0008403909185038130910509F475C208F43C
:103DE000FCC1029709F48BC50E94690AF0CFB901A2
:103DF0006054710977FF02C06F5F7F4F75956795BB
:103E00008255910997FD019600E410E022E530E02B
:103E100042EF58E0959587950E944C1282E080937E
:103E20005E048091590490915A04892B09F4DFC0F3
:103E30008CE380935D041092600310925F031092F4
:103E4000900310928F030E94811384E699E090936F
:103E50005E0380935D0385E699E090935C03809315
:103E60005B038091640487FD1EC061E00E94C2086C
:103E700061E0809164040E94940861E070E080E059
:103E800090E00E94320960E0809164040E949408EE
:103E90006AE070E080E090E00E94320961E0809189
:103EA00064040E9494088091590490915A04892BCB
:103EB00009F45CC120917104309172044091730443
:103EC0005091740460E074E284EF90E00E948625D3
:103ED0002051310941095109569547953795279544
:103EE0002093B80064E08EE097E00E942C1560916A
:103EF000420461508CE394E00E94E11564E08AE0A2
:103F000097E00E942C1580915E0460E1813009F0F9
:103F100064E18CE394E00E94E11564E086E097E0C0
:103F20000E942C158FE88093790480914004909131
:103F300041048038910509F032C18091420490918A
:103F400043048034910509F03AC180915E048130C8
:103F500009F023C18FE98093790412E16AED8CE3C3
:103F600094E00E94E115612F8CE394E00E94E1153A
:103F700061E88CE394E00E94E115609179048CE3A0
:103F800094E00E94E11569ED8CE394E00E94E11554
:103F900080915E0462E2813009F061EF8CE394E08D
:103FA0000E94E11566E080E097E00E942C15809168
:103FB000590490915A04892B09F405C12091750484
:103FC00030917604409177045091780460E074E277
:103FD00084EF90E00E948625205131094109510962
:103FE00056954795379527952093B8008ECE61E07A
:103FF000809162040E94C20861E0809163040E9483
:10400000C20880916204082E000C990BFC01E75C49
:10401000F34FE491F0E0EE0FFF1FE15EF34F2591C7
:10402000349130936A0420936904FC01E158F34F02
:10403000E491E0936F0480916304082E000C990BC7
:10404000FC01E75CF34FE491F0E0EE0FFF1FE15E4F
:10405000F34FA591B491B0936C04A0936B04FC0151
:10406000E158F34FE491E09370048C91E82BEC93CA
:104070008091570490915804892B09F434C01FB7DC
:10408000F89480915A03811127C0EEE6FCE08491F8
:10409000E4EBFCE09491E82FF0E0EE0FFF1FEB5F04
:1040A000F34FA591B491EC91E92321F461E085E30C
:1040B0000E94940861E085E30E94C2088CB580618B
:1040C0008CBD8CB580648CBD61E084E30E94C20825
:1040D00061E083E30E94C20880915A038F5F80935E
:1040E0005A031FBFBECE61E0809160040E94C208E7
:1040F00061E0809161040E94C20880916004082EF2
:10410000000C990BFC01E75CF34FE491F0E0EE0F3B
:10411000FF1FE15EF34F25913491309366042093A5
:104120006504FC01E158F34FE491E0936D04809144
:104130006104082E000C990BFC01E75CF34FE4913D
:10414000F0E0EE0FFF1FE15EF34FA591B491B09345
:104150006804A0936704FC01E158F34FE491E093F5
:104160006E048C91E095E823EC937BCE809157040C
:1041700090915804892B31F080917A0490917B04BE
:104180000E94F80CE0916B04F0916C049081809196
:104190007004809589238083A5CE8FECDCCE803699
:1041A000910569F48091420490914304409739F459
:1041B00080915E04813029F480E18093790412E0DB
:1041C000CDCE8FEAFACFE0916B04F0916C04808140
:1041D00090917004892B808398CD80916103909198
:1041E00062030097A9F0019709F0FECD83E290E009
:1041F0000E9418188111F8CD82E290E00E941818F0
:10420000882309F453C010926203109261030AC01C
:1042100083E290E00E941818882339F0D09262035C
:10422000C09261030E94C71ADFCD82E290E00E9433
:1042300018188111D9CD84E290E00E9418188823C3
:1042400009F4D2CDD0928503C092840310927E03EC
:1042500010927D0383E090E090930B0280930A021A
:104260000E94CD170E94A71A81E08093500480938A
:104270005104D0924F04C0924E04D0924D04C0928B
:104280004C04109249041092480410924B0410926E
:104290004A0482EB9BE00E94341A0E94431668EEA7
:1042A00073E080E090E00E9432099ECD84E290E0CD
:1042B0000E941818882309F497CD82E090E090932B
:1042C00085038093840390CD8FB7F8944090870343
:1042D000509088036090890370908A038FBF80910B
:1042E000800390918103A0918203B0918303A30185
:1042F0009201281B390B4A0B5B0BDA01C901449769
:10430000A105B10508F4F5C060910C0270910D0291
:1043100050E040E080910002909101020E94F6116D
:104320006091060270910702809100029091010253
:10433000860F971F90930102809300024091040220
:104340005091050220910C0230910D02240F351F6F
:1043500030930D0220930C0201978D37910538F0B0
:1043600071956195710970930702609306021216A8
:1043700013060CF406C1519541955109509305025D
:104380004093040280910C0290910D02CA97ECF0C8
:10439000209100023091010280910202909103026B
:1043A000A9014E5F5F4F481759077CF04E96821760
:1043B00093075CF08091040290910502919581959C
:1043C00091099093050280930402A7E6EA2EA3E0E8
:1043D000FA2E912C812C312C212C2091000230912D
:1043E0000102A9014F5F5F4F5A87498740910C0234
:1043F00050910D02FA013196B4016B5F7F4F10E0CE
:1044000000E090E080E0D701A80FB91FAC91AA238B
:1044100009F4BEC0A985BA85A017B1070CF4B8C0CD
:10442000D8011F96A217B3070CF4B2C0E815F9051E
:104430000CF4AEC0641775070CF4AAC0B6E0B29DC8
:104440009001B39D300D112429593C4F820F931FC9
:10445000FC01108280917D0390917E0301969093E0
:104460007E0380937D030E949618809104029091B0
:10447000050291958195910990930502809304021C
:104480000E94FC242AE030E040E050E00E945425E5
:104490001616170618061906A4F0F1E0F0937F032C
:1044A000085F1F4F1093640300936303C101F3E09F
:1044B000880F991FFA95E1F706969093660380930B
:1044C00065032FEF221A320A38E0830E911C46E072
:1044D000E40EF11C53E02516310409F07ECF0E9452
:1044E000011A40928003509281036092820370927D
:1044F000830380917F03882309F455C040916503AD
:1045000050916603CA0101969093660380936503F8
:1045100044505109609163037091640365507109BF
:10452000EE24E394F12C0AE010E02AE030E08CE382
:1045300094E00E9417110E94431620916503309168
:1045400066032C3331057CF1409163035091640381
:104550008091020290910302481759070CF14E9680
:1045600084179507ECF080910A0290910B02019656
:1045700090930B0280930A020E94CD1710927F0342
:1045800012C02E3331050CF4FDCE0E94ED17FACE89
:1045900001960E5E1F4F8630910509F034CF91CF02
:1045A000203431055CF786E30E94F3084C016091EA
:1045B000020270910302F12CE12C04E010E02EE1E4
:1045C00030E04CE350E08CE394E00E94171122E6C7
:1045D00030E0D4010E9471272FEF33E040E050E03B
:1045E0000E94542530930302209302020E940D1A68
:1045F00080910C0290910D02803491050CF4A5C0BD
:104600000E94ED1780910A0290910B02181619066C
:104610000CF49BC080910802909109020E94181925
:104620000E94A71A82E08093500480935104D09294
:104630004F04C0924E04D0924D04C0924C0410928C
:1046400049041092480410924B0410924A0483ECDF
:104650009BE00E94081060917D0370917E03072EFD
:10466000000C880B990B97FF6CC00E94861A83EA96
:1046700092E00E94271A9E012F5F3F4FAE014D5FCF
:104680005F4FBE016B5F7F4FCE0107960E94BE0653
:104690000E94431668EB7BE080E090E00E943209C4
:1046A00010928503109284030E94A71A82E08093DF
:1046B000500480935104D0924F04C0924E04D09283
:1046C0004D04C0924C049E012F5F3F4FAE014D5FE1
:1046D0005F4FBE016B5F7F4FCE0107960E94BE0603
:1046E00089819A81A0E4B0E0A81BB90BCD01969511
:1046F00087952B813C81E0E8F0E0E21BF30B9F0102
:1047000036952795309349042093480490934B04A1
:1047100080934A0480E992E00E94271A83EA92E09B
:104720000E94271A0E94431660ED77E080E090E037
:104730000E9432090E94A71A1092850310928403E6
:1047400071CD4AE00E94421A92CF87E693E030E0B2
:1047500020E0FC01E20FF31F4081411183C02F5F75
:104760003F4F26303105A9F70696A816B90679F706
:104770000E94A71A82E08093500480935104D09243
:104780004F04C0924E04D0924D04C0924C042CE1D0
:1047900030E0309349042093480448E150E05093BE
:1047A0004B0440934A048BEC9BE00E9408106091FC
:1047B000080270910902072E000C880B990B97FFD5
:1047C00095C00E94861A83EA92E00E94271A0E94EE
:1047D000431660ED77E080E090E00E94320980911E
:1047E0000802909109020196863091050CF082C072
:1047F0009093090280930802809108029091090227
:104800000E9418196091060270910702072E000C91
:10481000880B990B0E945C2626E636E646EE5FE39F
:104820000E94E8260E9424267093070260930602E5
:104830006091040270910502072E000C880B990B01
:104840000E945C2626E636E646EE5FE30E94E826F6
:104850000E9424267093050260930402D09285037F
:10486000C09284030E94A71A0E940D1A0E94011A86
:104870000E94D2180E94431680917D0390917E037E
:104880006AE070E00E9455274B017C0170937C0325
:1048900060937B0390937A038093790304E110E0A3
:1048A00061E082E30E94940860E084E30E9494083F
:1048B000C4010E946C1865E070E080E090E00E9406
:1048C000320961E084E30E94940860E082E30E9480
:1048D0009408C7010E946C1865E070E080E090E0E9
:1048E0000E94320901501109D9F67ECA4AE00E949D
:1048F000421A69CFD0920902C09208027DCF0E946D
:10490000A71A81E08093500480935104D0924F0401
:10491000C0924E04D0924D04C0924C0410924904AF
:104920001092480410924B0410924A0482ED9BE0CE
:104930000E94341A0E94431668EB7BE080E090E00E
:10494000B2CC88E692E090933D0480933C04809141
:104950005B0490915C04009711F00C942828089552
:104960008F929F92AF92BF92CF92DF92EF92FF927F
:10497000CF93DF93EC01688179818A819B816115F6
:1049800071058105910521F464E279ED8BE597E0ED
:104990002DE133EF41E050E00E94542549015A01D6
:1049A0009B01AC01A7EAB1E40E9473256B017C0175
:1049B000ACEEB4EFA50194010E948125C60ED71E6E
:1049C000E81EF91EF7FE06C081E0C81AD108E1080A
:1049D00080E8F80AC882D982EA82FB82C701B60160
:1049E0009F77DF91CF91FF90EF90DF90CF90BF90B6
:1049F000AF909F908F9008958F929F92AF92BF92A9
:104A0000CF92DF92EF92FF9260910E0270910F02AF
:104A10008091100290911102611571058105910537
:104A200021F464E279ED8BE597E02DE133EF41E08D
:104A300050E00E94542549015A019B01AC01A7EAAC
:104A4000B1E40E9473256B017C01ACEEB4EFA501CB
:104A500094010E948125C60ED71EE81EF91EF7FE9E
:104A600006C081E0C81AD108E10880E8F80AC092BF
:104A70000E02D0920F02E0921002F0921102C701D2
:104A8000B6019F77FF90EF90DF90CF90BF90AF90EF
:104A90009F908F90089560930E0270930F02809301
:104AA0001002909311020895052E97FB1EF40094B6
:104AB0000E946B2557FD07D00E94862507FC03D076
:104AC0004EF40C946B2550954095309521953F4FB1
:104AD0004F4F5F4F089590958095709561957F4FEA
:104AE0008F4F9F4F08950E94A825A59F900DB49FBA
:104AF000900DA49F800D911D11240895B7FF0C9473
:104B000073250E947325821B930B0895A1E21A2E30
:104B1000AA1BBB1BFD010DC0AA1FBB1FEE1FFF1F61
:104B2000A217B307E407F50720F0A21BB30BE40BB1
:104B3000F50B661F771F881F991F1A9469F76095F8
:104B40007095809590959B01AC01BD01CF010895B2
:104B5000A29FB001B39FC001A39F700D811D1124BE
:104B6000911DB29F700D811D1124911D0895505803
:104B7000BB27AA270E94CF250C94AE260E94A02610
:104B800038F00E94A72620F039F49F3F19F426F44C
:104B90000C949D260EF4E095E7FB0C949726E92FE4
:104BA0000E94BF2658F3BA17620773078407950758
:104BB00020F079F4A6F50C94E1260EF4E0950B2E86
:104BC000BA2FA02D0B01B90190010C01CA01A0015F
:104BD0001124FF27591B99F0593F50F4503E68F1BA
:104BE0001A16F040A22F232F342F4427585FF3CFFB
:104BF000469537952795A795F0405395C9F77EF4CC
:104C00001F16BA0B620B730B840BBAF09150A1F014
:104C1000FF0FBB1F661F771F881FC2F70EC0BA0F9A
:104C2000621F731F841F48F4879577956795B79522
:104C3000F7959E3F08F0B0CF9395880F08F099271D
:104C4000EE0F9795879508950E942B266894B111D1
:104C50000C94E22608950E94C72688F09F5798F08A
:104C6000B92F9927B751B0F0E1F0660F771F881F71
:104C7000991F1AF0BA95C9F714C0B13091F00E948B
:104C8000E126B1E008950C94E126672F782F88275C
:104C9000B85F39F0B93FCCF3869577956795B395B2
:104CA000D9F73EF490958095709561957F4F8F4F21
:104CB0009F4F0895E89409C097FB3EF49095809526
:104CC000709561957F4F8F4F9F4F9923A9F0F92FD2
:104CD00096E9BB279395F695879577956795B79550
:104CE000F111F8CFFAF4BB0F11F460FF1BC06F5F36
:104CF0007F4F8F4F9F4F16C0882311F096E911C048
:104D0000772321F09EE8872F762F05C0662371F068
:104D100096E8862F70E060E02AF09A95660F771F7C
:104D2000881FDAF7880F9695879597F9089597F970
:104D30009F6780E870E060E008959FEF80EC089541
:104D400000240A941616170618060906089500246A
:104D50000A9412161306140605060895092E0394E4
:104D6000000C11F4882352F0BB0F40F4BF2B11F458
:104D700060FF04C06F5F7F4F8F4F9F4F089557FDB7
:104D80009058440F551F59F05F3F71F04795880FB9
:104D900097FB991F61F09F3F79F087950895121650
:104DA00013061406551FF2CF4695F1DF08C01616FC
:104DB00017061806991FF1CF8695710561050894AD
:104DC0000895E894BB2766277727CB0197F90895C4
:104DD0000E94FB260C94AE260E94A02638F00E946A
:104DE000A72620F0952311F00C9497260C949D266D
:104DF00011240C94E2260E94BF2670F3959FC1F304
:104E0000950F50E0551F629FF001729FBB27F00D78
:104E1000B11D639FAA27F00DB11DAA1F649F6627CD
:104E2000B00DA11D661F829F2227B00DA11D621F1C
:104E3000739FB00DA11D621F839FA00D611D221FD6
:104E4000749F3327A00D611D231F849F600D211DBA
:104E5000822F762F6A2F11249F5750409AF0F1F03D
:104E600088234AF0EE0FFF1FBB1F661F771F881FA6
:104E700091505040A9F79E3F510580F00C94972621
:104E80000C94E2265F3FE4F3983ED4F38695779541
:104E90006795B795F795E7959F5FC1F7FE2B880F4C
:104EA000911D9695879597F9089597FB072E16F40F
:104EB000009407D077FD09D00E94782707FC05D021
:104EC0003EF4909581959F4F0895709561957F4F21
:104ED0000895EE0FFF1F881F8BBF0790F691E02DFE
:104EE00019940E94A825B7FF0895821B930B08957B
:104EF000AA1BBB1B51E107C0AA1FBB1FA617B70700
:104F000010F0A61BB70B881F991F5A95A9F780951B
:104F10009095BC01CD0108950F931F93CF93DF931C
:104F20008230910510F482E090E0E0917E04F091EF
:104F30007F0430E020E0B0E0A0E0309799F4211544
:104F4000310509F44AC0281B390B24303105D8F546
:104F50008A819B816115710589F1FB0193838283AD
:104F6000FE0111C040815181028113814817590708
:104F7000E0F04817590799F4109761F012960C93D6
:104F8000129713961C933296CF01DF91CF911F9108
:104F90000F91089500937E0410937F04F4CF2115A0
:104FA000310551F04217530738F0A901DB019A018E
:104FB000BD01DF01F801C1CFEF01F9CF90937F046C
:104FC00080937E04CDCFFE01E20FF31F8193919376
:104FD0002250310939832883D7CF20917C04309126
:104FE0007D04232B41F4209114023091150230935B
:104FF0007D0420937C04209112023091130221152C
:10500000310541F42DB73EB7409116025091170279
:10501000241B350BE0917C04F0917D04E217F3072B
:10502000A0F42E1B3F0B2817390778F0AC014E5F18
:105030005F4F2417350748F04E0F5F1F50937D04D4
:1050400040937C04819391939FCFF0E0E0E09CCF6C
:10505000CF93DF930097E9F0FC013297138212821D
:10506000A0917E04B0917F04ED0130E020E0109724
:10507000A1F420813181820F931F20917C04309113
:105080007D042817390709F061C0F0937D04E0938F
:105090007C04DF91CF910895EA01CE17DF07E8F590
:1050A0004A815B819E0141155105B1F7E901FB83FE
:1050B000EA8349915991C40FD51FEC17FD0761F49C
:1050C000808191810296840F951FE90199838883DD
:1050D000828193819B838A83F0E0E0E012968D9138
:1050E0009C9113970097B9F52D913C911197CD01A3
:1050F0000296820F931F20917C0430917D04281723
:10510000390739F6309751F510927F0410927E04DA
:10511000B0937D04A0937C04BCCFD383C283408131
:105120005181840F951FC817D90761F44E5F5F4FF7
:1051300088819981480F591F518340838A819B81BF
:10514000938382832115310509F0B0CFF0937F045A
:10515000E0937E049ECFFD01DC01C0CF138212825A
:10516000D7CF81E090E0F8940C94BD28DC0101C019
:105170006D9341505040E0F7089516E0C9E8D6E03D
:1051800000E006C0802FFE010E9469272196011DC4
:0E519000CA38D10780E00807A9F7F894FFCFCE
:10519E0040003100FEFF0200010003003600010056
:1051AE0000000000800480003F0006005B004F00FE
:1051BE0066006D007D0007007F006F001F0020005D
:1051CE002100180019001A001B001C001D001E00F3
:1051DE0000000000FC0966099309490AC409A209E6
:1051EE00B609000000001614E913CA17BD06E21333
:1051FE00CF13C01300000000360F6609CA175913EB
:10520E00410CBD064512CE11EA11DE11AD12BD06DE
:10521E00FC0C7417B10BFA0B1711FA108210231035
:10522E004F79756E75204B617962657474696E691C
:06523E007A21000D0A00B8
:00000001FF
